{
  "contractName": "Bank",
  "abi": [
    {
      "inputs": [],
      "stateMutability": "nonpayable",
      "type": "constructor"
    },
    {
      "inputs": [
        {
          "internalType": "address",
          "name": "",
          "type": "address"
        },
        {
          "internalType": "bytes32",
          "name": "",
          "type": "bytes32"
        }
      ],
      "name": "accountBalances",
      "outputs": [
        {
          "internalType": "uint256",
          "name": "",
          "type": "uint256"
        }
      ],
      "stateMutability": "view",
      "type": "function",
      "constant": true
    },
    {
      "inputs": [
        {
          "internalType": "bytes32",
          "name": "",
          "type": "bytes32"
        }
      ],
      "name": "whitelistedTokens",
      "outputs": [
        {
          "internalType": "address",
          "name": "",
          "type": "address"
        }
      ],
      "stateMutability": "view",
      "type": "function",
      "constant": true
    },
    {
      "inputs": [
        {
          "internalType": "bytes32",
          "name": "symbol",
          "type": "bytes32"
        },
        {
          "internalType": "address",
          "name": "tokenAddress",
          "type": "address"
        }
      ],
      "name": "whitelistedToken",
      "outputs": [],
      "stateMutability": "nonpayable",
      "type": "function"
    },
    {
      "inputs": [
        {
          "internalType": "uint256",
          "name": "amount",
          "type": "uint256"
        },
        {
          "internalType": "bytes32",
          "name": "symbol",
          "type": "bytes32"
        }
      ],
      "name": "depositTokens",
      "outputs": [],
      "stateMutability": "nonpayable",
      "type": "function"
    },
    {
      "inputs": [
        {
          "internalType": "uint256",
          "name": "amount",
          "type": "uint256"
        },
        {
          "internalType": "bytes32",
          "name": "symbol",
          "type": "bytes32"
        }
      ],
      "name": "withdrawTokens",
      "outputs": [],
      "stateMutability": "nonpayable",
      "type": "function"
    }
  ],
  "bytecode": "0x608060405234801561001057600080fd5b50336000806101000a81548173ffffffffffffffffffffffffffffffffffffffff021916908373ffffffffffffffffffffffffffffffffffffffff1602179055506109c8806100606000396000f3fe608060405234801561001057600080fd5b50600436106100575760003560e01c80638f97994b1461005c578063aa3d9a1514610078578063d15b223e146100a8578063db04a9ab146100c4578063e64fe366146100e0575b600080fd5b6100766004803603810190610071919061058c565b610110565b005b610092600480360381019061008d91906105cc565b6102c0565b60405161009f919061063a565b60405180910390f35b6100c260048036038101906100bd919061058c565b6102f3565b005b6100de60048036038101906100d99190610681565b610412565b005b6100fa60048036038101906100f591906106c1565b6104f6565b6040516101079190610710565b60405180910390f35b81600260003373ffffffffffffffffffffffffffffffffffffffff1673ffffffffffffffffffffffffffffffffffffffff16815260200190815260200160002060008381526020019081526020016000205410156101a3576040517f08c379a000000000000000000000000000000000000000000000000000000000815260040161019a90610788565b60405180910390fd5b81600260003373ffffffffffffffffffffffffffffffffffffffff1673ffffffffffffffffffffffffffffffffffffffff1681526020019081526020016000206000838152602001908152602001600020600082825461020391906107d7565b925050819055506001600082815260200190815260200160002060009054906101000a900473ffffffffffffffffffffffffffffffffffffffff1673ffffffffffffffffffffffffffffffffffffffff1663a9059cbb33846040518363ffffffff1660e01b815260040161027892919061080b565b6020604051808303816000875af1158015610297573d6000803e3d6000fd5b505050506040513d601f19601f820116820180604052508101906102bb919061086c565b505050565b60016020528060005260406000206000915054906101000a900473ffffffffffffffffffffffffffffffffffffffff1681565b81600260003373ffffffffffffffffffffffffffffffffffffffff1673ffffffffffffffffffffffffffffffffffffffff168152602001908152602001600020600083815260200190815260200160002060008282546103539190610899565b925050819055506001600082815260200190815260200160002060009054906101000a900473ffffffffffffffffffffffffffffffffffffffff1673ffffffffffffffffffffffffffffffffffffffff166323b872dd3330856040518463ffffffff1660e01b81526004016103ca939291906108ef565b6020604051808303816000875af11580156103e9573d6000803e3d6000fd5b505050506040513d601f19601f8201168201806040525081019061040d919061086c565b505050565b60008054906101000a900473ffffffffffffffffffffffffffffffffffffffff1673ffffffffffffffffffffffffffffffffffffffff163373ffffffffffffffffffffffffffffffffffffffff16146104a0576040517f08c379a000000000000000000000000000000000000000000000000000000000815260040161049790610972565b60405180910390fd5b806001600084815260200190815260200160002060006101000a81548173ffffffffffffffffffffffffffffffffffffffff021916908373ffffffffffffffffffffffffffffffffffffffff1602179055505050565b6002602052816000526040600020602052806000526040600020600091509150505481565b600080fd5b6000819050919050565b61053381610520565b811461053e57600080fd5b50565b6000813590506105508161052a565b92915050565b6000819050919050565b61056981610556565b811461057457600080fd5b50565b60008135905061058681610560565b92915050565b600080604083850312156105a3576105a261051b565b5b60006105b185828601610541565b92505060206105c285828601610577565b9150509250929050565b6000602082840312156105e2576105e161051b565b5b60006105f084828501610577565b91505092915050565b600073ffffffffffffffffffffffffffffffffffffffff82169050919050565b6000610624826105f9565b9050919050565b61063481610619565b82525050565b600060208201905061064f600083018461062b565b92915050565b61065e81610619565b811461066957600080fd5b50565b60008135905061067b81610655565b92915050565b600080604083850312156106985761069761051b565b5b60006106a685828601610577565b92505060206106b78582860161066c565b9150509250929050565b600080604083850312156106d8576106d761051b565b5b60006106e68582860161066c565b92505060206106f785828601610577565b9150509250929050565b61070a81610520565b82525050565b60006020820190506107256000830184610701565b92915050565b600082825260208201905092915050565b7f4e6f7420656e6f75676820746f6b656e73000000000000000000000000000000600082015250565b600061077260118361072b565b915061077d8261073c565b602082019050919050565b600060208201905081810360008301526107a181610765565b9050919050565b7f4e487b7100000000000000000000000000000000000000000000000000000000600052601160045260246000fd5b60006107e282610520565b91506107ed83610520565b925082821015610800576107ff6107a8565b5b828203905092915050565b6000604082019050610820600083018561062b565b61082d6020830184610701565b9392505050565b60008115159050919050565b61084981610834565b811461085457600080fd5b50565b60008151905061086681610840565b92915050565b6000602082840312156108825761088161051b565b5b600061089084828501610857565b91505092915050565b60006108a482610520565b91506108af83610520565b9250827fffffffffffffffffffffffffffffffffffffffffffffffffffffffffffffffff038211156108e4576108e36107a8565b5b828201905092915050565b6000606082019050610904600083018661062b565b610911602083018561062b565b61091e6040830184610701565b949350505050565b7f507269766174652066756e6374696f6e00000000000000000000000000000000600082015250565b600061095c60108361072b565b915061096782610926565b602082019050919050565b6000602082019050818103600083015261098b8161094f565b905091905056fea2646970667358221220322ec6cd017fc403433cb8317a3e9bc613ba8054fdd254199df60ac14a68540264736f6c634300080d0033",
  "immutableReferences": {},
  "source": "// SPDX-License-Identifier: GPL-3.0\r\npragma solidity ^0.8.13;\r\n\r\nimport \"./ElectronToken.sol\";\r\nimport \"@openzeppelin/contracts/token/ERC20/ERC20.sol\";\r\n\r\ncontract Bank {\r\n    address owner;\r\n    mapping(bytes32 => address) public whitelistedTokens;\r\n    mapping(address => mapping(bytes32 => uint256)) public accountBalances;\r\n\r\n    constructor() {\r\n        owner = msg.sender;\r\n    }\r\n\r\n\r\n    function whitelistedToken(bytes32 symbol, address tokenAddress) external {\r\n        require(msg.sender == owner ,'Private function');\r\n        whitelistedTokens[symbol] = tokenAddress;\r\n    }\r\n\r\n    function depositTokens(uint256 amount, bytes32 symbol) external {\r\n        accountBalances[msg.sender][symbol] += amount;\r\n        ERC20(whitelistedTokens[symbol]).transferFrom(msg.sender, address(this), amount);\r\n    }\r\n\r\n    function withdrawTokens(uint256 amount, bytes32 symbol) external {\r\n        require(accountBalances[msg.sender][symbol] >= amount, 'Not enough tokens');\r\n        accountBalances[msg.sender][symbol] -= amount;\r\n        ERC20(whitelistedTokens[symbol]).transfer(msg.sender, amount);\r\n    }\r\n}\r\n\r\n",
  "sourcePath": "C:\\Users\\Cam\\Desktop\\FINAl\\electron\\contracts\\Bank.sol",
  "compiler": {
    "name": "solc",
    "version": "0.8.13+commit.abaa5c0e.Emscripten.clang"
  },
  "schemaVersion": "3.3.4",
  "updatedAt": "2022-06-21T16:26:41.505Z",
  "networkType": "ethereum",
  "devdoc": {
    "kind": "dev",
    "methods": {},
    "version": 1
  },
  "userdoc": {
    "kind": "user",
    "methods": {},
    "version": 1
  }
}