{
  "contractName": "ElectricGenerator",
  "abi": [
    {
      "inputs": [
        {
          "internalType": "contract ElectronToken",
          "name": "_electronToken",
          "type": "address"
        }
      ],
      "stateMutability": "nonpayable",
      "type": "constructor"
    },
    {
      "inputs": [
        {
          "internalType": "uint256",
          "name": "",
          "type": "uint256"
        }
      ],
      "name": "currentGenerator",
      "outputs": [
        {
          "internalType": "uint256",
          "name": "GeneratorId",
          "type": "uint256"
        },
        {
          "internalType": "string",
          "name": "Email",
          "type": "string"
        },
        {
          "internalType": "string",
          "name": "Password",
          "type": "string"
        },
        {
          "internalType": "string",
          "name": "Address",
          "type": "string"
        },
        {
          "internalType": "address",
          "name": "GeneratorBalanceAddress",
          "type": "address"
        }
      ],
      "stateMutability": "view",
      "type": "function"
    },
    {
      "inputs": [],
      "name": "electronToken",
      "outputs": [
        {
          "internalType": "contract ElectronToken",
          "name": "",
          "type": "address"
        }
      ],
      "stateMutability": "view",
      "type": "function"
    },
    {
      "inputs": [
        {
          "internalType": "uint256",
          "name": "",
          "type": "uint256"
        }
      ],
      "name": "existUsername",
      "outputs": [
        {
          "internalType": "string",
          "name": "",
          "type": "string"
        }
      ],
      "stateMutability": "view",
      "type": "function"
    },
    {
      "inputs": [
        {
          "internalType": "uint256",
          "name": "",
          "type": "uint256"
        }
      ],
      "name": "loginValidator",
      "outputs": [
        {
          "internalType": "uint256",
          "name": "GeneratorId",
          "type": "uint256"
        },
        {
          "internalType": "string",
          "name": "Email",
          "type": "string"
        },
        {
          "internalType": "string",
          "name": "Password",
          "type": "string"
        }
      ],
      "stateMutability": "view",
      "type": "function"
    },
    {
      "inputs": [],
      "name": "name",
      "outputs": [
        {
          "internalType": "string",
          "name": "",
          "type": "string"
        }
      ],
      "stateMutability": "view",
      "type": "function"
    },
    {
      "inputs": [
        {
          "internalType": "string",
          "name": "_email",
          "type": "string"
        },
        {
          "internalType": "string",
          "name": "_password",
          "type": "string"
        },
        {
          "internalType": "string",
          "name": "_address",
          "type": "string"
        }
      ],
      "name": "registerGenerator",
      "outputs": [
        {
          "internalType": "uint256",
          "name": "",
          "type": "uint256"
        }
      ],
      "stateMutability": "nonpayable",
      "type": "function"
    },
    {
      "inputs": [
        {
          "internalType": "uint256",
          "name": "id",
          "type": "uint256"
        },
        {
          "internalType": "uint256",
          "name": "_quantity",
          "type": "uint256"
        }
      ],
      "name": "lockElectricityToPool",
      "outputs": [],
      "stateMutability": "nonpayable",
      "type": "function"
    },
    {
      "inputs": [],
      "name": "getLoginInfo",
      "outputs": [
        {
          "components": [
            {
              "internalType": "uint256",
              "name": "GeneratorId",
              "type": "uint256"
            },
            {
              "internalType": "string",
              "name": "Email",
              "type": "string"
            },
            {
              "internalType": "string",
              "name": "Password",
              "type": "string"
            }
          ],
          "internalType": "struct ElectricGenerator.GeneratorLoginValidator[]",
          "name": "",
          "type": "tuple[]"
        }
      ],
      "stateMutability": "view",
      "type": "function"
    }
  ],
  "bytecode": "0x60806040526040518060400160405280601881526020017f456c65637472696347656e657261746f725f656e67696e6500000000000000008152506000908051906020019062000051929190620000cd565b503480156200005f57600080fd5b50604051620015b1380380620015b18339818101604052810190620000859190620001fb565b80600560006101000a81548173ffffffffffffffffffffffffffffffffffffffff021916908373ffffffffffffffffffffffffffffffffffffffff1602179055505062000291565b828054620000db906200025c565b90600052602060002090601f016020900481019282620000ff57600085556200014b565b82601f106200011a57805160ff19168380011785556200014b565b828001600101855582156200014b579182015b828111156200014a5782518255916020019190600101906200012d565b5b5090506200015a91906200015e565b5090565b5b80821115620001795760008160009055506001016200015f565b5090565b600080fd5b600073ffffffffffffffffffffffffffffffffffffffff82169050919050565b6000620001af8262000182565b9050919050565b6000620001c382620001a2565b9050919050565b620001d581620001b6565b8114620001e157600080fd5b50565b600081519050620001f581620001ca565b92915050565b6000602082840312156200021457620002136200017d565b5b60006200022484828501620001e4565b91505092915050565b7f4e487b7100000000000000000000000000000000000000000000000000000000600052602260045260246000fd5b600060028204905060018216806200027557607f821691505b6020821081036200028b576200028a6200022d565b5b50919050565b61131080620002a16000396000f3fe608060405234801561001057600080fd5b50600436106100885760003560e01c8063b90077531161005b578063b900775314610115578063d09422cf14610145578063e9f05e9d14610179578063f8ee03f3146101ab57610088565b806306fdde031461008d57806313d0312e146100ab5780632123e23d146100db5780635b917284146100f7575b600080fd5b6100956101c9565b6040516100a29190610bae565b60405180910390f35b6100c560048036038101906100c09190610d19565b610257565b6040516100d29190610dd9565b60405180910390f35b6100f560048036038101906100f09190610e20565b610407565b005b6100ff6104db565b60405161010c9190610edf565b60405180910390f35b61012f600480360381019061012a9190610efa565b610501565b60405161013c9190610bae565b60405180910390f35b61015f600480360381019061015a9190610efa565b6105ad565b604051610170959493929190610f48565b60405180910390f35b610193600480360381019061018e9190610efa565b61079b565b6040516101a293929190610fb0565b60405180910390f35b6101b36108e5565b6040516101c09190611167565b60405180910390f35b600080546101d6906111b8565b80601f0160208091040260200160405190810160405280929190818152602001828054610202906111b8565b801561024f5780601f106102245761010080835404028352916020019161024f565b820191906000526020600020905b81548152906001019060200180831161023257829003601f168201915b505050505081565b600060016004546102689190611218565b6004819055506040518060a0016040528060045481526020018581526020018481526020018381526020013373ffffffffffffffffffffffffffffffffffffffff168152506001600060045481526020019081526020016000206000820151816000015560208201518160010190805190602001906102e8929190610a72565b506040820151816002019080519060200190610305929190610a72565b506060820151816003019080519060200190610322929190610a72565b5060808201518160040160006101000a81548173ffffffffffffffffffffffffffffffffffffffff021916908373ffffffffffffffffffffffffffffffffffffffff1602179055509050506003604051806060016040528060045481526020018681526020018581525090806001815401808255809150506001900390600052602060002090600302016000909190919091506000820151816000015560208201518160010190805190602001906103db929190610a72565b5060408201518160020190805190602001906103f8929190610a72565b50505060045490509392505050565b6000811161044a576040517f08c379a0000000000000000000000000000000000000000000000000000000008152600401610441906112ba565b60405180910390fd5b600560009054906101000a900473ffffffffffffffffffffffffffffffffffffffff1673ffffffffffffffffffffffffffffffffffffffff1663a0712d68826040518263ffffffff1660e01b81526004016104a59190610dd9565b600060405180830381600087803b1580156104bf57600080fd5b505af11580156104d3573d6000803e3d6000fd5b505050505050565b600560009054906101000a900473ffffffffffffffffffffffffffffffffffffffff1681565b6002818154811061051157600080fd5b90600052602060002001600091509050805461052c906111b8565b80601f0160208091040260200160405190810160405280929190818152602001828054610558906111b8565b80156105a55780601f1061057a576101008083540402835291602001916105a5565b820191906000526020600020905b81548152906001019060200180831161058857829003601f168201915b505050505081565b60016020528060005260406000206000915090508060000154908060010180546105d6906111b8565b80601f0160208091040260200160405190810160405280929190818152602001828054610602906111b8565b801561064f5780601f106106245761010080835404028352916020019161064f565b820191906000526020600020905b81548152906001019060200180831161063257829003601f168201915b505050505090806002018054610664906111b8565b80601f0160208091040260200160405190810160405280929190818152602001828054610690906111b8565b80156106dd5780601f106106b2576101008083540402835291602001916106dd565b820191906000526020600020905b8154815290600101906020018083116106c057829003601f168201915b5050505050908060030180546106f2906111b8565b80601f016020809104026020016040519081016040528092919081815260200182805461071e906111b8565b801561076b5780601f106107405761010080835404028352916020019161076b565b820191906000526020600020905b81548152906001019060200180831161074e57829003601f168201915b5050505050908060040160009054906101000a900473ffffffffffffffffffffffffffffffffffffffff16905085565b600381815481106107ab57600080fd5b90600052602060002090600302016000915090508060000154908060010180546107d4906111b8565b80601f0160208091040260200160405190810160405280929190818152602001828054610800906111b8565b801561084d5780601f106108225761010080835404028352916020019161084d565b820191906000526020600020905b81548152906001019060200180831161083057829003601f168201915b505050505090806002018054610862906111b8565b80601f016020809104026020016040519081016040528092919081815260200182805461088e906111b8565b80156108db5780601f106108b0576101008083540402835291602001916108db565b820191906000526020600020905b8154815290600101906020018083116108be57829003601f168201915b5050505050905083565b60606003805480602002602001604051908101604052809291908181526020016000905b82821015610a69578382906000526020600020906003020160405180606001604052908160008201548152602001600182018054610946906111b8565b80601f0160208091040260200160405190810160405280929190818152602001828054610972906111b8565b80156109bf5780601f10610994576101008083540402835291602001916109bf565b820191906000526020600020905b8154815290600101906020018083116109a257829003601f168201915b505050505081526020016002820180546109d8906111b8565b80601f0160208091040260200160405190810160405280929190818152602001828054610a04906111b8565b8015610a515780601f10610a2657610100808354040283529160200191610a51565b820191906000526020600020905b815481529060010190602001808311610a3457829003601f168201915b50505050508152505081526020019060010190610909565b50505050905090565b828054610a7e906111b8565b90600052602060002090601f016020900481019282610aa05760008555610ae7565b82601f10610ab957805160ff1916838001178555610ae7565b82800160010185558215610ae7579182015b82811115610ae6578251825591602001919060010190610acb565b5b509050610af49190610af8565b5090565b5b80821115610b11576000816000905550600101610af9565b5090565b600081519050919050565b600082825260208201905092915050565b60005b83811015610b4f578082015181840152602081019050610b34565b83811115610b5e576000848401525b50505050565b6000601f19601f8301169050919050565b6000610b8082610b15565b610b8a8185610b20565b9350610b9a818560208601610b31565b610ba381610b64565b840191505092915050565b60006020820190508181036000830152610bc88184610b75565b905092915050565b6000604051905090565b600080fd5b600080fd5b600080fd5b600080fd5b7f4e487b7100000000000000000000000000000000000000000000000000000000600052604160045260246000fd5b610c2682610b64565b810181811067ffffffffffffffff82111715610c4557610c44610bee565b5b80604052505050565b6000610c58610bd0565b9050610c648282610c1d565b919050565b600067ffffffffffffffff821115610c8457610c83610bee565b5b610c8d82610b64565b9050602081019050919050565b82818337600083830152505050565b6000610cbc610cb784610c69565b610c4e565b905082815260208101848484011115610cd857610cd7610be9565b5b610ce3848285610c9a565b509392505050565b600082601f830112610d0057610cff610be4565b5b8135610d10848260208601610ca9565b91505092915050565b600080600060608486031215610d3257610d31610bda565b5b600084013567ffffffffffffffff811115610d5057610d4f610bdf565b5b610d5c86828701610ceb565b935050602084013567ffffffffffffffff811115610d7d57610d7c610bdf565b5b610d8986828701610ceb565b925050604084013567ffffffffffffffff811115610daa57610da9610bdf565b5b610db686828701610ceb565b9150509250925092565b6000819050919050565b610dd381610dc0565b82525050565b6000602082019050610dee6000830184610dca565b92915050565b610dfd81610dc0565b8114610e0857600080fd5b50565b600081359050610e1a81610df4565b92915050565b60008060408385031215610e3757610e36610bda565b5b6000610e4585828601610e0b565b9250506020610e5685828601610e0b565b9150509250929050565b600073ffffffffffffffffffffffffffffffffffffffff82169050919050565b6000819050919050565b6000610ea5610ea0610e9b84610e60565b610e80565b610e60565b9050919050565b6000610eb782610e8a565b9050919050565b6000610ec982610eac565b9050919050565b610ed981610ebe565b82525050565b6000602082019050610ef46000830184610ed0565b92915050565b600060208284031215610f1057610f0f610bda565b5b6000610f1e84828501610e0b565b91505092915050565b6000610f3282610e60565b9050919050565b610f4281610f27565b82525050565b600060a082019050610f5d6000830188610dca565b8181036020830152610f6f8187610b75565b90508181036040830152610f838186610b75565b90508181036060830152610f978185610b75565b9050610fa66080830184610f39565b9695505050505050565b6000606082019050610fc56000830186610dca565b8181036020830152610fd78185610b75565b90508181036040830152610feb8184610b75565b9050949350505050565b600081519050919050565b600082825260208201905092915050565b6000819050602082019050919050565b61102a81610dc0565b82525050565b600082825260208201905092915050565b600061104c82610b15565b6110568185611030565b9350611066818560208601610b31565b61106f81610b64565b840191505092915050565b60006060830160008301516110926000860182611021565b50602083015184820360208601526110aa8282611041565b915050604083015184820360408601526110c48282611041565b9150508091505092915050565b60006110dd838361107a565b905092915050565b6000602082019050919050565b60006110fd82610ff5565b6111078185611000565b93508360208202850161111985611011565b8060005b85811015611155578484038952815161113685826110d1565b9450611141836110e5565b925060208a0199505060018101905061111d565b50829750879550505050505092915050565b6000602082019050818103600083015261118181846110f2565b905092915050565b7f4e487b7100000000000000000000000000000000000000000000000000000000600052602260045260246000fd5b600060028204905060018216806111d057607f821691505b6020821081036111e3576111e2611189565b5b50919050565b7f4e487b7100000000000000000000000000000000000000000000000000000000600052601160045260246000fd5b600061122382610dc0565b915061122e83610dc0565b9250827fffffffffffffffffffffffffffffffffffffffffffffffffffffffffffffffff03821115611263576112626111e9565b5b828201905092915050565b7f5175616e74697479206d7573742062652067726561746572207468616e203000600082015250565b60006112a4601f83610b20565b91506112af8261126e565b602082019050919050565b600060208201905081810360008301526112d381611297565b905091905056fea264697066735822122032c2d2b126dbe1da1c1426fae79d13a1e9be0e8585f62a0b96dc3e6fe245a22e64736f6c634300080d0033",
  "immutableReferences": {},
  "source": "// SPDX-License-Identifier: GPL-3.0\npragma solidity ^0.8.13;\n\nimport \"./ElectronToken.sol\";\n\ncontract ElectricGenerator {\n    string public name = \"ElectricGenerator_engine\";\n    /* ------------------------------ALL STRUCT----------------------------------------------------------- */\n    struct GeneratorInfo {\n        uint GeneratorId;\n        string Email;\n        string Password;\n        string Address;\n        address GeneratorBalanceAddress;\n    }\n\n    struct GeneratorLoginValidator {\n        uint GeneratorId;\n        string Email;\n        string Password;\n    }\n\n    /* ----------ALL PROPERTIES-------------------------------------------------------*/\n    mapping(uint => GeneratorInfo) public currentGenerator;\n    string[] public existUsername;\n    GeneratorLoginValidator[] public loginValidator;\n    uint private id;\n    ElectronToken public electronToken;\n\n\n    constructor(ElectronToken _electronToken) public {\n        electronToken = _electronToken;\n    }\n\n\n\n    /* ------------------------------ALL FUNCTIONS----------------------------------------------------------- */\n    function registerGenerator( string memory _email, string memory _password, string memory _address) public returns(uint) {\n        id = id + 1;\n        currentGenerator[id] = GeneratorInfo(id, _email, _password, _address, msg.sender);\n        loginValidator.push(GeneratorLoginValidator(id, _email, _password));\n        return id;\n    }\n\n    function lockElectricityToPool(uint id, uint _quantity) public {\n        require(_quantity > 0, \"Quantity must be greater than 0\");\n        electronToken.mint(_quantity);\n    }\n\n\n\n\n\n\n\n\n\n\n\n\n\n\n\n\n\n\n\n\n   /*------------------------------------ALL VIEW FUNCTION HERE-----------------------------------*/\n    function getLoginInfo() public view returns(GeneratorLoginValidator[] memory) {\n        return loginValidator;\n    }\n\n    \n\n}\n",
  "sourcePath": "C:/Users/Cam/Desktop/electron/contracts/ElectricGenerator.sol",
  "compiler": {
    "name": "solc",
    "version": "0.8.13+commit.abaa5c0e.Emscripten.clang"
  },
  "schemaVersion": "3.3.4",
  "updatedAt": "2022-05-14T12:17:38.959Z",
  "devdoc": {
    "kind": "dev",
    "methods": {},
    "version": 1
  },
  "userdoc": {
    "kind": "user",
    "methods": {},
    "version": 1
  }
}