{
  "contractName": "ElectricGenerator",
  "abi": [
    {
      "inputs": [
        {
          "internalType": "contract ElectronToken",
          "name": "_electronToken",
          "type": "address"
        }
      ],
      "stateMutability": "nonpayable",
      "type": "constructor"
    },
    {
      "inputs": [
        {
          "internalType": "uint256",
          "name": "",
          "type": "uint256"
        }
      ],
      "name": "currentGenerator",
      "outputs": [
        {
          "internalType": "uint256",
          "name": "Id",
          "type": "uint256"
        },
        {
          "internalType": "string",
          "name": "Username",
          "type": "string"
        },
        {
          "internalType": "string",
          "name": "Email",
          "type": "string"
        },
        {
          "internalType": "string",
          "name": "Password",
          "type": "string"
        },
        {
          "internalType": "string",
          "name": "Address",
          "type": "string"
        },
        {
          "internalType": "address",
          "name": "GeneratorBalanceAddress",
          "type": "address"
        }
      ],
      "stateMutability": "view",
      "type": "function",
      "constant": true
    },
    {
      "inputs": [],
      "name": "electronToken",
      "outputs": [
        {
          "internalType": "contract ElectronToken",
          "name": "",
          "type": "address"
        }
      ],
      "stateMutability": "view",
      "type": "function",
      "constant": true
    },
    {
      "inputs": [
        {
          "internalType": "uint256",
          "name": "",
          "type": "uint256"
        }
      ],
      "name": "existUsername",
      "outputs": [
        {
          "internalType": "string",
          "name": "",
          "type": "string"
        }
      ],
      "stateMutability": "view",
      "type": "function",
      "constant": true
    },
    {
      "inputs": [],
      "name": "id",
      "outputs": [
        {
          "internalType": "uint256",
          "name": "",
          "type": "uint256"
        }
      ],
      "stateMutability": "view",
      "type": "function",
      "constant": true
    },
    {
      "inputs": [
        {
          "internalType": "uint256",
          "name": "",
          "type": "uint256"
        }
      ],
      "name": "lockStorage",
      "outputs": [
        {
          "internalType": "uint256",
          "name": "Id",
          "type": "uint256"
        },
        {
          "internalType": "uint256",
          "name": "LockAmount",
          "type": "uint256"
        }
      ],
      "stateMutability": "view",
      "type": "function",
      "constant": true
    },
    {
      "inputs": [
        {
          "internalType": "uint256",
          "name": "",
          "type": "uint256"
        }
      ],
      "name": "loginValidator",
      "outputs": [
        {
          "internalType": "uint256",
          "name": "Id",
          "type": "uint256"
        },
        {
          "internalType": "string",
          "name": "Email",
          "type": "string"
        },
        {
          "internalType": "string",
          "name": "Password",
          "type": "string"
        }
      ],
      "stateMutability": "view",
      "type": "function",
      "constant": true
    },
    {
      "inputs": [],
      "name": "name",
      "outputs": [
        {
          "internalType": "string",
          "name": "",
          "type": "string"
        }
      ],
      "stateMutability": "view",
      "type": "function",
      "constant": true
    },
    {
      "inputs": [],
      "name": "owner",
      "outputs": [
        {
          "internalType": "address",
          "name": "",
          "type": "address"
        }
      ],
      "stateMutability": "view",
      "type": "function",
      "constant": true
    },
    {
      "inputs": [
        {
          "internalType": "string",
          "name": "_username",
          "type": "string"
        },
        {
          "internalType": "string",
          "name": "_email",
          "type": "string"
        },
        {
          "internalType": "string",
          "name": "_password",
          "type": "string"
        },
        {
          "internalType": "string",
          "name": "_address",
          "type": "string"
        }
      ],
      "name": "registerGenerator",
      "outputs": [
        {
          "internalType": "uint256",
          "name": "",
          "type": "uint256"
        }
      ],
      "stateMutability": "nonpayable",
      "type": "function"
    },
    {
      "inputs": [
        {
          "internalType": "uint256",
          "name": "id",
          "type": "uint256"
        },
        {
          "internalType": "uint256",
          "name": "_quantity",
          "type": "uint256"
        }
      ],
      "name": "lockElectricityToPool",
      "outputs": [],
      "stateMutability": "nonpayable",
      "type": "function"
    },
    {
      "inputs": [],
      "name": "getLoginInfo",
      "outputs": [
        {
          "components": [
            {
              "internalType": "uint256",
              "name": "Id",
              "type": "uint256"
            },
            {
              "internalType": "string",
              "name": "Email",
              "type": "string"
            },
            {
              "internalType": "string",
              "name": "Password",
              "type": "string"
            }
          ],
          "internalType": "struct ElectricGenerator.GeneratorLoginValidator[]",
          "name": "",
          "type": "tuple[]"
        }
      ],
      "stateMutability": "view",
      "type": "function",
      "constant": true
    },
    {
      "inputs": [],
      "name": "getCurrentGeneratorBalance",
      "outputs": [
        {
          "internalType": "uint256",
          "name": "",
          "type": "uint256"
        }
      ],
      "stateMutability": "view",
      "type": "function",
      "constant": true
    }
  ],
  "bytecode": "0x60806040526040518060400160405280601881526020017f456c65637472696347656e657261746f725f656e67696e65000000000000000081525060009080519060200190620000519291906200010e565b503480156200005f57600080fd5b50604051620019803803806200198083398181016040528101906200008591906200023c565b80600660006101000a81548173ffffffffffffffffffffffffffffffffffffffff021916908373ffffffffffffffffffffffffffffffffffffffff16021790555033600160006101000a81548173ffffffffffffffffffffffffffffffffffffffff021916908373ffffffffffffffffffffffffffffffffffffffff16021790555050620002d2565b8280546200011c906200029d565b90600052602060002090601f0160209004810192826200014057600085556200018c565b82601f106200015b57805160ff19168380011785556200018c565b828001600101855582156200018c579182015b828111156200018b5782518255916020019190600101906200016e565b5b5090506200019b91906200019f565b5090565b5b80821115620001ba576000816000905550600101620001a0565b5090565b600080fd5b600073ffffffffffffffffffffffffffffffffffffffff82169050919050565b6000620001f082620001c3565b9050919050565b60006200020482620001e3565b9050919050565b6200021681620001f7565b81146200022257600080fd5b50565b60008151905062000236816200020b565b92915050565b600060208284031215620002555762000254620001be565b5b6000620002658482850162000225565b91505092915050565b7f4e487b7100000000000000000000000000000000000000000000000000000000600052602260045260246000fd5b60006002820490506001821680620002b657607f821691505b602082108103620002cc57620002cb6200026e565b5b50919050565b61169e80620002e26000396000f3fe608060405234801561001057600080fd5b50600436106100b45760003560e01c8063af640d0f11610071578063af640d0f1461017e578063b90077531461019c578063d09422cf146101cc578063e9f05e9d14610201578063f8ee03f314610233578063ff5618f614610251576100b4565b8063037a5a12146100b957806306fdde03146100d75780632123e23d146100f5578063216b260a146101115780635b917284146101425780638da5cb5b14610160575b600080fd5b6100c1610281565b6040516100ce9190610df1565b60405180910390f35b6100df610324565b6040516100ec9190610ea5565b60405180910390f35b61010f600480360381019061010a9190610f07565b6103b2565b005b61012b60048036038101906101269190610f47565b6104dc565b604051610139929190610f74565b60405180910390f35b61014a610510565b604051610157919061101c565b60405180910390f35b610168610536565b6040516101759190611058565b60405180910390f35b61018661055c565b6040516101939190610df1565b60405180910390f35b6101b660048036038101906101b19190610f47565b610562565b6040516101c39190610ea5565b60405180910390f35b6101e660048036038101906101e19190610f47565b61060e565b6040516101f896959493929190611073565b60405180910390f35b61021b60048036038101906102169190610f47565b61088a565b60405161022a939291906110f0565b60405180910390f35b61023b6109d4565b60405161024891906112a7565b60405180910390f35b61026b600480360381019061026691906113fe565b610b61565b6040516102789190610df1565b60405180910390f35b6000600660009054906101000a900473ffffffffffffffffffffffffffffffffffffffff1673ffffffffffffffffffffffffffffffffffffffff166370a08231336040518263ffffffff1660e01b81526004016102de9190611058565b602060405180830381865afa1580156102fb573d6000803e3d6000fd5b505050506040513d601f19601f8201168201806040525081019061031f91906114ea565b905090565b6000805461033190611546565b80601f016020809104026020016040519081016040528092919081815260200182805461035d90611546565b80156103aa5780601f1061037f576101008083540402835291602001916103aa565b820191906000526020600020905b81548152906001019060200180831161038d57829003601f168201915b505050505081565b600081116103f5576040517f08c379a00000000000000000000000000000000000000000000000000000000081526004016103ec906115c3565b60405180910390fd5b600660009054906101000a900473ffffffffffffffffffffffffffffffffffffffff1673ffffffffffffffffffffffffffffffffffffffff1663a0712d68826040518263ffffffff1660e01b81526004016104509190610df1565b600060405180830381600087803b15801561046a57600080fd5b505af115801561047e573d6000803e3d6000fd5b5050505060076040518060400160405280848152602001838152509080600181540180825580915050600190039060005260206000209060020201600090919091909150600082015181600001556020820151816001015550505050565b600781815481106104ec57600080fd5b90600052602060002090600202016000915090508060000154908060010154905082565b600660009054906101000a900473ffffffffffffffffffffffffffffffffffffffff1681565b600160009054906101000a900473ffffffffffffffffffffffffffffffffffffffff1681565b60055481565b6003818154811061057257600080fd5b90600052602060002001600091509050805461058d90611546565b80601f01602080910402602001604051908101604052809291908181526020018280546105b990611546565b80156106065780601f106105db57610100808354040283529160200191610606565b820191906000526020600020905b8154815290600101906020018083116105e957829003601f168201915b505050505081565b600260205280600052604060002060009150905080600001549080600101805461063790611546565b80601f016020809104026020016040519081016040528092919081815260200182805461066390611546565b80156106b05780601f10610685576101008083540402835291602001916106b0565b820191906000526020600020905b81548152906001019060200180831161069357829003601f168201915b5050505050908060020180546106c590611546565b80601f01602080910402602001604051908101604052809291908181526020018280546106f190611546565b801561073e5780601f106107135761010080835404028352916020019161073e565b820191906000526020600020905b81548152906001019060200180831161072157829003601f168201915b50505050509080600301805461075390611546565b80601f016020809104026020016040519081016040528092919081815260200182805461077f90611546565b80156107cc5780601f106107a1576101008083540402835291602001916107cc565b820191906000526020600020905b8154815290600101906020018083116107af57829003601f168201915b5050505050908060040180546107e190611546565b80601f016020809104026020016040519081016040528092919081815260200182805461080d90611546565b801561085a5780601f1061082f5761010080835404028352916020019161085a565b820191906000526020600020905b81548152906001019060200180831161083d57829003601f168201915b5050505050908060050160009054906101000a900473ffffffffffffffffffffffffffffffffffffffff16905086565b6004818154811061089a57600080fd5b90600052602060002090600302016000915090508060000154908060010180546108c390611546565b80601f01602080910402602001604051908101604052809291908181526020018280546108ef90611546565b801561093c5780601f106109115761010080835404028352916020019161093c565b820191906000526020600020905b81548152906001019060200180831161091f57829003601f168201915b50505050509080600201805461095190611546565b80601f016020809104026020016040519081016040528092919081815260200182805461097d90611546565b80156109ca5780601f1061099f576101008083540402835291602001916109ca565b820191906000526020600020905b8154815290600101906020018083116109ad57829003601f168201915b5050505050905083565b60606004805480602002602001604051908101604052809291908181526020016000905b82821015610b58578382906000526020600020906003020160405180606001604052908160008201548152602001600182018054610a3590611546565b80601f0160208091040260200160405190810160405280929190818152602001828054610a6190611546565b8015610aae5780601f10610a8357610100808354040283529160200191610aae565b820191906000526020600020905b815481529060010190602001808311610a9157829003601f168201915b50505050508152602001600282018054610ac790611546565b80601f0160208091040260200160405190810160405280929190818152602001828054610af390611546565b8015610b405780601f10610b1557610100808354040283529160200191610b40565b820191906000526020600020905b815481529060010190602001808311610b2357829003601f168201915b505050505081525050815260200190600101906109f8565b50505050905090565b60006001600554610b729190611612565b6005819055506040518060c0016040528060055481526020018681526020018581526020018481526020018381526020013373ffffffffffffffffffffffffffffffffffffffff16815250600260006005548152602001908152602001600020600082015181600001556020820151816001019080519060200190610bf8929190610d35565b506040820151816002019080519060200190610c15929190610d35565b506060820151816003019080519060200190610c32929190610d35565b506080820151816004019080519060200190610c4f929190610d35565b5060a08201518160050160006101000a81548173ffffffffffffffffffffffffffffffffffffffff021916908373ffffffffffffffffffffffffffffffffffffffff160217905550905050600460405180606001604052806005548152602001868152602001858152509080600181540180825580915050600190039060005260206000209060030201600090919091909150600082015181600001556020820151816001019080519060200190610d08929190610d35565b506040820151816002019080519060200190610d25929190610d35565b5050506005549050949350505050565b828054610d4190611546565b90600052602060002090601f016020900481019282610d635760008555610daa565b82601f10610d7c57805160ff1916838001178555610daa565b82800160010185558215610daa579182015b82811115610da9578251825591602001919060010190610d8e565b5b509050610db79190610dbb565b5090565b5b80821115610dd4576000816000905550600101610dbc565b5090565b6000819050919050565b610deb81610dd8565b82525050565b6000602082019050610e066000830184610de2565b92915050565b600081519050919050565b600082825260208201905092915050565b60005b83811015610e46578082015181840152602081019050610e2b565b83811115610e55576000848401525b50505050565b6000601f19601f8301169050919050565b6000610e7782610e0c565b610e818185610e17565b9350610e91818560208601610e28565b610e9a81610e5b565b840191505092915050565b60006020820190508181036000830152610ebf8184610e6c565b905092915050565b6000604051905090565b600080fd5b600080fd5b610ee481610dd8565b8114610eef57600080fd5b50565b600081359050610f0181610edb565b92915050565b60008060408385031215610f1e57610f1d610ed1565b5b6000610f2c85828601610ef2565b9250506020610f3d85828601610ef2565b9150509250929050565b600060208284031215610f5d57610f5c610ed1565b5b6000610f6b84828501610ef2565b91505092915050565b6000604082019050610f896000830185610de2565b610f966020830184610de2565b9392505050565b600073ffffffffffffffffffffffffffffffffffffffff82169050919050565b6000819050919050565b6000610fe2610fdd610fd884610f9d565b610fbd565b610f9d565b9050919050565b6000610ff482610fc7565b9050919050565b600061100682610fe9565b9050919050565b61101681610ffb565b82525050565b6000602082019050611031600083018461100d565b92915050565b600061104282610f9d565b9050919050565b61105281611037565b82525050565b600060208201905061106d6000830184611049565b92915050565b600060c0820190506110886000830189610de2565b818103602083015261109a8188610e6c565b905081810360408301526110ae8187610e6c565b905081810360608301526110c28186610e6c565b905081810360808301526110d68185610e6c565b90506110e560a0830184611049565b979650505050505050565b60006060820190506111056000830186610de2565b81810360208301526111178185610e6c565b9050818103604083015261112b8184610e6c565b9050949350505050565b600081519050919050565b600082825260208201905092915050565b6000819050602082019050919050565b61116a81610dd8565b82525050565b600082825260208201905092915050565b600061118c82610e0c565b6111968185611170565b93506111a6818560208601610e28565b6111af81610e5b565b840191505092915050565b60006060830160008301516111d26000860182611161565b50602083015184820360208601526111ea8282611181565b915050604083015184820360408601526112048282611181565b9150508091505092915050565b600061121d83836111ba565b905092915050565b6000602082019050919050565b600061123d82611135565b6112478185611140565b93508360208202850161125985611151565b8060005b8581101561129557848403895281516112768582611211565b945061128183611225565b925060208a0199505060018101905061125d565b50829750879550505050505092915050565b600060208201905081810360008301526112c18184611232565b905092915050565b600080fd5b600080fd5b7f4e487b7100000000000000000000000000000000000000000000000000000000600052604160045260246000fd5b61130b82610e5b565b810181811067ffffffffffffffff8211171561132a576113296112d3565b5b80604052505050565b600061133d610ec7565b90506113498282611302565b919050565b600067ffffffffffffffff821115611369576113686112d3565b5b61137282610e5b565b9050602081019050919050565b82818337600083830152505050565b60006113a161139c8461134e565b611333565b9050828152602081018484840111156113bd576113bc6112ce565b5b6113c884828561137f565b509392505050565b600082601f8301126113e5576113e46112c9565b5b81356113f584826020860161138e565b91505092915050565b6000806000806080858703121561141857611417610ed1565b5b600085013567ffffffffffffffff81111561143657611435610ed6565b5b611442878288016113d0565b945050602085013567ffffffffffffffff81111561146357611462610ed6565b5b61146f878288016113d0565b935050604085013567ffffffffffffffff8111156114905761148f610ed6565b5b61149c878288016113d0565b925050606085013567ffffffffffffffff8111156114bd576114bc610ed6565b5b6114c9878288016113d0565b91505092959194509250565b6000815190506114e481610edb565b92915050565b600060208284031215611500576114ff610ed1565b5b600061150e848285016114d5565b91505092915050565b7f4e487b7100000000000000000000000000000000000000000000000000000000600052602260045260246000fd5b6000600282049050600182168061155e57607f821691505b60208210810361157157611570611517565b5b50919050565b7f5175616e74697479206d7573742062652067726561746572207468616e203000600082015250565b60006115ad601f83610e17565b91506115b882611577565b602082019050919050565b600060208201905081810360008301526115dc816115a0565b9050919050565b7f4e487b7100000000000000000000000000000000000000000000000000000000600052601160045260246000fd5b600061161d82610dd8565b915061162883610dd8565b9250827fffffffffffffffffffffffffffffffffffffffffffffffffffffffffffffffff0382111561165d5761165c6115e3565b5b82820190509291505056fea264697066735822122010a66219922a0999279e93823c76ca63497c5ce143f146ce98b68c6790b69f4f64736f6c634300080d0033",
  "immutableReferences": {},
  "source": "// SPDX-License-Identifier: GPL-3.0\r\npragma solidity ^0.8.13;\r\n\r\nimport \"./ElectronToken.sol\";\r\n\r\ncontract ElectricGenerator {\r\n    string public name = \"ElectricGenerator_engine\";\r\n    address public owner;\r\n    /* ------------------------------ALL STRUCT----------------------------------------------------------- */\r\n    struct GeneratorInfo {\r\n        uint Id;\r\n        string Username;\r\n        string Email;\r\n        string Password;\r\n        string Address;\r\n        address GeneratorBalanceAddress;\r\n    }\r\n\r\n    struct GeneratorLoginValidator {\r\n        uint Id;\r\n        string Email;\r\n        string Password;\r\n    }\r\n\r\n    struct LockStorage {\r\n        uint Id;\r\n        uint LockAmount;\r\n    }\r\n\r\n    /* ----------ALL PROPERTIES-------------------------------------------------------*/\r\n    mapping(uint => GeneratorInfo) public currentGenerator;\r\n    string[] public existUsername;\r\n    GeneratorLoginValidator[] public loginValidator;\r\n    uint public id;\r\n    ElectronToken public electronToken;\r\n    LockStorage[] public lockStorage;\r\n\r\n\r\n    constructor(ElectronToken _electronToken) public {\r\n        electronToken = _electronToken;\r\n        owner = msg.sender;\r\n    }\r\n\r\n\r\n\r\n    /* ------------------------------ALL FUNCTIONS----------------------------------------------------------- */\r\n    function registerGenerator( string memory _username,string memory _email, string memory _password, string memory _address) public returns(uint) {\r\n        id = id + 1;\r\n        currentGenerator[id] = GeneratorInfo(id,_username, _email, _password, _address, msg.sender);\r\n        loginValidator.push(GeneratorLoginValidator(id, _email, _password));\r\n        return id;\r\n    }\r\n\r\n    function lockElectricityToPool(uint id, uint _quantity) public {\r\n        require(_quantity > 0, \"Quantity must be greater than 0\");\r\n        electronToken.mint(_quantity);\r\n        lockStorage.push(LockStorage(id, _quantity));\r\n    }\r\n\r\n\r\n\r\n\r\n\r\n\r\n\r\n\r\n\r\n\r\n\r\n\r\n\r\n\r\n\r\n\r\n\r\n\r\n\r\n\r\n\r\n\r\n   /*------------------------------------ALL VIEW FUNCTION HERE-----------------------------------*/\r\n    function getLoginInfo() public view returns(GeneratorLoginValidator[] memory) {\r\n        return loginValidator;\r\n    }\r\n\r\n    function getCurrentGeneratorBalance() public view returns(uint) {\r\n        return electronToken.balanceOf(msg.sender);\r\n    }\r\n\r\n    \r\n\r\n}\r\n",
  "sourcePath": "C:\\Users\\mqcha\\OneDrive\\\\KEN\\electron\\contracts\\ElectricGenerator.sol",
  "compiler": {
    "name": "solc",
    "version": "0.8.13+commit.abaa5c0e.Emscripten.clang"
  },
  "schemaVersion": "3.4.7",
  "updatedAt": "2022-05-15T13:40:37.074Z",
  "networkType": "ethereum",
  "devdoc": {
    "kind": "dev",
    "methods": {},
    "version": 1
  },
  "userdoc": {
    "kind": "user",
    "methods": {},
    "version": 1
  }
}