{
  "contractName": "ElectricGenerator",
  "abi": [
    {
      "inputs": [
        {
          "internalType": "contract ElectronToken",
          "name": "_electronToken",
          "type": "address"
        }
      ],
      "stateMutability": "nonpayable",
      "type": "constructor"
    },
    {
      "inputs": [
        {
          "internalType": "uint256",
          "name": "",
          "type": "uint256"
        }
      ],
      "name": "currentGenerator",
      "outputs": [
        {
          "internalType": "uint256",
          "name": "GeneratorId",
          "type": "uint256"
        },
        {
          "internalType": "string",
          "name": "Email",
          "type": "string"
        },
        {
          "internalType": "string",
          "name": "Password",
          "type": "string"
        },
        {
          "internalType": "string",
          "name": "Address",
          "type": "string"
        },
        {
          "internalType": "address",
          "name": "GeneratorBalanceAddress",
          "type": "address"
        }
      ],
      "stateMutability": "view",
      "type": "function",
      "constant": true
    },
    {
      "inputs": [],
      "name": "electronToken",
      "outputs": [
        {
          "internalType": "contract ElectronToken",
          "name": "",
          "type": "address"
        }
      ],
      "stateMutability": "view",
      "type": "function",
      "constant": true
    },
    {
      "inputs": [
        {
          "internalType": "uint256",
          "name": "",
          "type": "uint256"
        }
      ],
      "name": "existUsername",
      "outputs": [
        {
          "internalType": "string",
          "name": "",
          "type": "string"
        }
      ],
      "stateMutability": "view",
      "type": "function",
      "constant": true
    },
    {
      "inputs": [],
      "name": "id",
      "outputs": [
        {
          "internalType": "uint256",
          "name": "",
          "type": "uint256"
        }
      ],
      "stateMutability": "view",
      "type": "function",
      "constant": true
    },
    {
      "inputs": [
        {
          "internalType": "uint256",
          "name": "",
          "type": "uint256"
        }
      ],
      "name": "lockStorage",
      "outputs": [
        {
          "internalType": "uint256",
          "name": "GeneratorId",
          "type": "uint256"
        },
        {
          "internalType": "uint256",
          "name": "LockAmount",
          "type": "uint256"
        }
      ],
      "stateMutability": "view",
      "type": "function",
      "constant": true
    },
    {
      "inputs": [
        {
          "internalType": "uint256",
          "name": "",
          "type": "uint256"
        }
      ],
      "name": "loginValidator",
      "outputs": [
        {
          "internalType": "uint256",
          "name": "GeneratorId",
          "type": "uint256"
        },
        {
          "internalType": "string",
          "name": "Email",
          "type": "string"
        },
        {
          "internalType": "string",
          "name": "Password",
          "type": "string"
        }
      ],
      "stateMutability": "view",
      "type": "function",
      "constant": true
    },
    {
      "inputs": [],
      "name": "name",
      "outputs": [
        {
          "internalType": "string",
          "name": "",
          "type": "string"
        }
      ],
      "stateMutability": "view",
      "type": "function",
      "constant": true
    },
    {
      "inputs": [],
      "name": "owner",
      "outputs": [
        {
          "internalType": "address",
          "name": "",
          "type": "address"
        }
      ],
      "stateMutability": "view",
      "type": "function",
      "constant": true
    },
    {
      "inputs": [
        {
          "internalType": "string",
          "name": "_email",
          "type": "string"
        },
        {
          "internalType": "string",
          "name": "_password",
          "type": "string"
        },
        {
          "internalType": "string",
          "name": "_address",
          "type": "string"
        }
      ],
      "name": "registerGenerator",
      "outputs": [
        {
          "internalType": "uint256",
          "name": "",
          "type": "uint256"
        }
      ],
      "stateMutability": "nonpayable",
      "type": "function"
    },
    {
      "inputs": [
        {
          "internalType": "uint256",
          "name": "id",
          "type": "uint256"
        },
        {
          "internalType": "uint256",
          "name": "_quantity",
          "type": "uint256"
        }
      ],
      "name": "lockElectricityToPool",
      "outputs": [],
      "stateMutability": "nonpayable",
      "type": "function"
    },
    {
      "inputs": [],
      "name": "getLoginInfo",
      "outputs": [
        {
          "components": [
            {
              "internalType": "uint256",
              "name": "GeneratorId",
              "type": "uint256"
            },
            {
              "internalType": "string",
              "name": "Email",
              "type": "string"
            },
            {
              "internalType": "string",
              "name": "Password",
              "type": "string"
            }
          ],
          "internalType": "struct ElectricGenerator.GeneratorLoginValidator[]",
          "name": "",
          "type": "tuple[]"
        }
      ],
      "stateMutability": "view",
      "type": "function",
      "constant": true
    }
  ],
  "bytecode": "0x60806040526040518060400160405280601881526020017f456c65637472696347656e657261746f725f656e67696e65000000000000000081525060009080519060200190620000519291906200010e565b503480156200005f57600080fd5b506040516200177a3803806200177a83398181016040528101906200008591906200023c565b80600660006101000a81548173ffffffffffffffffffffffffffffffffffffffff021916908373ffffffffffffffffffffffffffffffffffffffff16021790555033600160006101000a81548173ffffffffffffffffffffffffffffffffffffffff021916908373ffffffffffffffffffffffffffffffffffffffff16021790555050620002d2565b8280546200011c906200029d565b90600052602060002090601f0160209004810192826200014057600085556200018c565b82601f106200015b57805160ff19168380011785556200018c565b828001600101855582156200018c579182015b828111156200018b5782518255916020019190600101906200016e565b5b5090506200019b91906200019f565b5090565b5b80821115620001ba576000816000905550600101620001a0565b5090565b600080fd5b600073ffffffffffffffffffffffffffffffffffffffff82169050919050565b6000620001f082620001c3565b9050919050565b60006200020482620001e3565b9050919050565b6200021681620001f7565b81146200022257600080fd5b50565b60008151905062000236816200020b565b92915050565b600060208284031215620002555762000254620001be565b5b6000620002658482850162000225565b91505092915050565b7f4e487b7100000000000000000000000000000000000000000000000000000000600052602260045260246000fd5b60006002820490506001821680620002b657607f821691505b602082108103620002cc57620002cb6200026e565b5b50919050565b61149880620002e26000396000f3fe608060405234801561001057600080fd5b50600436106100a95760003560e01c80638da5cb5b116100715780638da5cb5b14610167578063af640d0f14610185578063b9007753146101a3578063d09422cf146101d3578063e9f05e9d14610207578063f8ee03f314610239576100a9565b806306fdde03146100ae57806313d0312e146100cc5780632123e23d146100fc578063216b260a146101185780635b91728414610149575b600080fd5b6100b6610257565b6040516100c39190610cf2565b60405180910390f35b6100e660048036038101906100e19190610e5d565b6102e5565b6040516100f39190610f1d565b60405180910390f35b61011660048036038101906101119190610f64565b610495565b005b610132600480360381019061012d9190610fa4565b6105bf565b604051610140929190610fd1565b60405180910390f35b6101516105f3565b60405161015e9190611079565b60405180910390f35b61016f610619565b60405161017c91906110b5565b60405180910390f35b61018d61063f565b60405161019a9190610f1d565b60405180910390f35b6101bd60048036038101906101b89190610fa4565b610645565b6040516101ca9190610cf2565b60405180910390f35b6101ed60048036038101906101e89190610fa4565b6106f1565b6040516101fe9594939291906110d0565b60405180910390f35b610221600480360381019061021c9190610fa4565b6108df565b60405161023093929190611138565b60405180910390f35b610241610a29565b60405161024e91906112ef565b60405180910390f35b6000805461026490611340565b80601f016020809104026020016040519081016040528092919081815260200182805461029090611340565b80156102dd5780601f106102b2576101008083540402835291602001916102dd565b820191906000526020600020905b8154815290600101906020018083116102c057829003601f168201915b505050505081565b600060016005546102f691906113a0565b6005819055506040518060a0016040528060055481526020018581526020018481526020018381526020013373ffffffffffffffffffffffffffffffffffffffff16815250600260006005548152602001908152602001600020600082015181600001556020820151816001019080519060200190610376929190610bb6565b506040820151816002019080519060200190610393929190610bb6565b5060608201518160030190805190602001906103b0929190610bb6565b5060808201518160040160006101000a81548173ffffffffffffffffffffffffffffffffffffffff021916908373ffffffffffffffffffffffffffffffffffffffff160217905550905050600460405180606001604052806005548152602001868152602001858152509080600181540180825580915050600190039060005260206000209060030201600090919091909150600082015181600001556020820151816001019080519060200190610469929190610bb6565b506040820151816002019080519060200190610486929190610bb6565b50505060055490509392505050565b600081116104d8576040517f08c379a00000000000000000000000000000000000000000000000000000000081526004016104cf90611442565b60405180910390fd5b600660009054906101000a900473ffffffffffffffffffffffffffffffffffffffff1673ffffffffffffffffffffffffffffffffffffffff1663a0712d68826040518263ffffffff1660e01b81526004016105339190610f1d565b600060405180830381600087803b15801561054d57600080fd5b505af1158015610561573d6000803e3d6000fd5b5050505060076040518060400160405280848152602001838152509080600181540180825580915050600190039060005260206000209060020201600090919091909150600082015181600001556020820151816001015550505050565b600781815481106105cf57600080fd5b90600052602060002090600202016000915090508060000154908060010154905082565b600660009054906101000a900473ffffffffffffffffffffffffffffffffffffffff1681565b600160009054906101000a900473ffffffffffffffffffffffffffffffffffffffff1681565b60055481565b6003818154811061065557600080fd5b90600052602060002001600091509050805461067090611340565b80601f016020809104026020016040519081016040528092919081815260200182805461069c90611340565b80156106e95780601f106106be576101008083540402835291602001916106e9565b820191906000526020600020905b8154815290600101906020018083116106cc57829003601f168201915b505050505081565b600260205280600052604060002060009150905080600001549080600101805461071a90611340565b80601f016020809104026020016040519081016040528092919081815260200182805461074690611340565b80156107935780601f1061076857610100808354040283529160200191610793565b820191906000526020600020905b81548152906001019060200180831161077657829003601f168201915b5050505050908060020180546107a890611340565b80601f01602080910402602001604051908101604052809291908181526020018280546107d490611340565b80156108215780601f106107f657610100808354040283529160200191610821565b820191906000526020600020905b81548152906001019060200180831161080457829003601f168201915b50505050509080600301805461083690611340565b80601f016020809104026020016040519081016040528092919081815260200182805461086290611340565b80156108af5780601f10610884576101008083540402835291602001916108af565b820191906000526020600020905b81548152906001019060200180831161089257829003601f168201915b5050505050908060040160009054906101000a900473ffffffffffffffffffffffffffffffffffffffff16905085565b600481815481106108ef57600080fd5b906000526020600020906003020160009150905080600001549080600101805461091890611340565b80601f016020809104026020016040519081016040528092919081815260200182805461094490611340565b80156109915780601f1061096657610100808354040283529160200191610991565b820191906000526020600020905b81548152906001019060200180831161097457829003601f168201915b5050505050908060020180546109a690611340565b80601f01602080910402602001604051908101604052809291908181526020018280546109d290611340565b8015610a1f5780601f106109f457610100808354040283529160200191610a1f565b820191906000526020600020905b815481529060010190602001808311610a0257829003601f168201915b5050505050905083565b60606004805480602002602001604051908101604052809291908181526020016000905b82821015610bad578382906000526020600020906003020160405180606001604052908160008201548152602001600182018054610a8a90611340565b80601f0160208091040260200160405190810160405280929190818152602001828054610ab690611340565b8015610b035780601f10610ad857610100808354040283529160200191610b03565b820191906000526020600020905b815481529060010190602001808311610ae657829003601f168201915b50505050508152602001600282018054610b1c90611340565b80601f0160208091040260200160405190810160405280929190818152602001828054610b4890611340565b8015610b955780601f10610b6a57610100808354040283529160200191610b95565b820191906000526020600020905b815481529060010190602001808311610b7857829003601f168201915b50505050508152505081526020019060010190610a4d565b50505050905090565b828054610bc290611340565b90600052602060002090601f016020900481019282610be45760008555610c2b565b82601f10610bfd57805160ff1916838001178555610c2b565b82800160010185558215610c2b579182015b82811115610c2a578251825591602001919060010190610c0f565b5b509050610c389190610c3c565b5090565b5b80821115610c55576000816000905550600101610c3d565b5090565b600081519050919050565b600082825260208201905092915050565b60005b83811015610c93578082015181840152602081019050610c78565b83811115610ca2576000848401525b50505050565b6000601f19601f8301169050919050565b6000610cc482610c59565b610cce8185610c64565b9350610cde818560208601610c75565b610ce781610ca8565b840191505092915050565b60006020820190508181036000830152610d0c8184610cb9565b905092915050565b6000604051905090565b600080fd5b600080fd5b600080fd5b600080fd5b7f4e487b7100000000000000000000000000000000000000000000000000000000600052604160045260246000fd5b610d6a82610ca8565b810181811067ffffffffffffffff82111715610d8957610d88610d32565b5b80604052505050565b6000610d9c610d14565b9050610da88282610d61565b919050565b600067ffffffffffffffff821115610dc857610dc7610d32565b5b610dd182610ca8565b9050602081019050919050565b82818337600083830152505050565b6000610e00610dfb84610dad565b610d92565b905082815260208101848484011115610e1c57610e1b610d2d565b5b610e27848285610dde565b509392505050565b600082601f830112610e4457610e43610d28565b5b8135610e54848260208601610ded565b91505092915050565b600080600060608486031215610e7657610e75610d1e565b5b600084013567ffffffffffffffff811115610e9457610e93610d23565b5b610ea086828701610e2f565b935050602084013567ffffffffffffffff811115610ec157610ec0610d23565b5b610ecd86828701610e2f565b925050604084013567ffffffffffffffff811115610eee57610eed610d23565b5b610efa86828701610e2f565b9150509250925092565b6000819050919050565b610f1781610f04565b82525050565b6000602082019050610f326000830184610f0e565b92915050565b610f4181610f04565b8114610f4c57600080fd5b50565b600081359050610f5e81610f38565b92915050565b60008060408385031215610f7b57610f7a610d1e565b5b6000610f8985828601610f4f565b9250506020610f9a85828601610f4f565b9150509250929050565b600060208284031215610fba57610fb9610d1e565b5b6000610fc884828501610f4f565b91505092915050565b6000604082019050610fe66000830185610f0e565b610ff36020830184610f0e565b9392505050565b600073ffffffffffffffffffffffffffffffffffffffff82169050919050565b6000819050919050565b600061103f61103a61103584610ffa565b61101a565b610ffa565b9050919050565b600061105182611024565b9050919050565b600061106382611046565b9050919050565b61107381611058565b82525050565b600060208201905061108e600083018461106a565b92915050565b600061109f82610ffa565b9050919050565b6110af81611094565b82525050565b60006020820190506110ca60008301846110a6565b92915050565b600060a0820190506110e56000830188610f0e565b81810360208301526110f78187610cb9565b9050818103604083015261110b8186610cb9565b9050818103606083015261111f8185610cb9565b905061112e60808301846110a6565b9695505050505050565b600060608201905061114d6000830186610f0e565b818103602083015261115f8185610cb9565b905081810360408301526111738184610cb9565b9050949350505050565b600081519050919050565b600082825260208201905092915050565b6000819050602082019050919050565b6111b281610f04565b82525050565b600082825260208201905092915050565b60006111d482610c59565b6111de81856111b8565b93506111ee818560208601610c75565b6111f781610ca8565b840191505092915050565b600060608301600083015161121a60008601826111a9565b506020830151848203602086015261123282826111c9565b9150506040830151848203604086015261124c82826111c9565b9150508091505092915050565b60006112658383611202565b905092915050565b6000602082019050919050565b60006112858261117d565b61128f8185611188565b9350836020820285016112a185611199565b8060005b858110156112dd57848403895281516112be8582611259565b94506112c98361126d565b925060208a019950506001810190506112a5565b50829750879550505050505092915050565b60006020820190508181036000830152611309818461127a565b905092915050565b7f4e487b7100000000000000000000000000000000000000000000000000000000600052602260045260246000fd5b6000600282049050600182168061135857607f821691505b60208210810361136b5761136a611311565b5b50919050565b7f4e487b7100000000000000000000000000000000000000000000000000000000600052601160045260246000fd5b60006113ab82610f04565b91506113b683610f04565b9250827fffffffffffffffffffffffffffffffffffffffffffffffffffffffffffffffff038211156113eb576113ea611371565b5b828201905092915050565b7f5175616e74697479206d7573742062652067726561746572207468616e203000600082015250565b600061142c601f83610c64565b9150611437826113f6565b602082019050919050565b6000602082019050818103600083015261145b8161141f565b905091905056fea26469706673582212201612f18b059e86756fe21609fc07afddc9eee4dc8abdea813184bad454f42f9564736f6c634300080d0033",
  "immutableReferences": {},
  "source": "// SPDX-License-Identifier: GPL-3.0\r\npragma solidity ^0.8.13;\r\n\r\nimport \"./ElectronToken.sol\";\r\n\r\ncontract ElectricGenerator {\r\n    string public name = \"ElectricGenerator_engine\";\r\n    address public owner;\r\n    /* ------------------------------ALL STRUCT----------------------------------------------------------- */\r\n    struct GeneratorInfo {\r\n        uint GeneratorId;\r\n        string Email;\r\n        string Password;\r\n        string Address;\r\n        address GeneratorBalanceAddress;\r\n    }\r\n\r\n    struct GeneratorLoginValidator {\r\n        uint GeneratorId;\r\n        string Email;\r\n        string Password;\r\n    }\r\n\r\n    struct LockStorage {\r\n        uint GeneratorId;\r\n        uint LockAmount;\r\n    }\r\n\r\n    /* ----------ALL PROPERTIES-------------------------------------------------------*/\r\n    mapping(uint => GeneratorInfo) public currentGenerator;\r\n    string[] public existUsername;\r\n    GeneratorLoginValidator[] public loginValidator;\r\n    uint public id;\r\n    ElectronToken public electronToken;\r\n    LockStorage[] public lockStorage;\r\n\r\n\r\n    constructor(ElectronToken _electronToken) public {\r\n        electronToken = _electronToken;\r\n        owner = msg.sender;\r\n    }\r\n\r\n\r\n\r\n    /* ------------------------------ALL FUNCTIONS----------------------------------------------------------- */\r\n    function registerGenerator( string memory _email, string memory _password, string memory _address) public returns(uint) {\r\n        id = id + 1;\r\n        currentGenerator[id] = GeneratorInfo(id, _email, _password, _address, msg.sender);\r\n        loginValidator.push(GeneratorLoginValidator(id, _email, _password));\r\n        return id;\r\n    }\r\n\r\n    function lockElectricityToPool(uint id, uint _quantity) public {\r\n        require(_quantity > 0, \"Quantity must be greater than 0\");\r\n        electronToken.mint(_quantity);\r\n        lockStorage.push(LockStorage(id, _quantity));\r\n    }\r\n\r\n\r\n\r\n\r\n\r\n\r\n\r\n\r\n\r\n\r\n\r\n\r\n\r\n\r\n\r\n\r\n\r\n\r\n\r\n\r\n   /*------------------------------------ALL VIEW FUNCTION HERE-----------------------------------*/\r\n    function getLoginInfo() public view returns(GeneratorLoginValidator[] memory) {\r\n        return loginValidator;\r\n    }\r\n\r\n    \r\n\r\n}\r\n",
  "sourcePath": "C:\\Users\\mqcha\\OneDrive\\\\KEN\\electron\\contracts\\ElectricGenerator.sol",
  "compiler": {
    "name": "solc",
    "version": "0.8.13+commit.abaa5c0e.Emscripten.clang"
  },
  "schemaVersion": "3.4.7",
  "updatedAt": "2022-05-14T15:35:45.390Z",
  "networkType": "ethereum",
  "devdoc": {
    "kind": "dev",
    "methods": {},
    "version": 1
  },
  "userdoc": {
    "kind": "user",
    "methods": {},
    "version": 1
  }
}