{
  "contractName": "LOB",
  "abi": [
    {
      "inputs": [
        {
          "internalType": "contract Bank",
          "name": "_bank",
          "type": "address"
        },
        {
          "internalType": "contract ElectronToken",
          "name": "_electronToken",
          "type": "address"
        }
      ],
      "stateMutability": "nonpayable",
      "type": "constructor"
    },
    {
      "inputs": [],
      "name": "bank",
      "outputs": [
        {
          "internalType": "contract Bank",
          "name": "",
          "type": "address"
        }
      ],
      "stateMutability": "view",
      "type": "function",
      "constant": true
    },
    {
      "inputs": [
        {
          "internalType": "uint256",
          "name": "",
          "type": "uint256"
        }
      ],
      "name": "buyPriceList",
      "outputs": [
        {
          "internalType": "uint256",
          "name": "",
          "type": "uint256"
        }
      ],
      "stateMutability": "view",
      "type": "function",
      "constant": true
    },
    {
      "inputs": [],
      "name": "electronToken",
      "outputs": [
        {
          "internalType": "contract ElectronToken",
          "name": "",
          "type": "address"
        }
      ],
      "stateMutability": "view",
      "type": "function",
      "constant": true
    },
    {
      "inputs": [],
      "name": "name",
      "outputs": [
        {
          "internalType": "string",
          "name": "",
          "type": "string"
        }
      ],
      "stateMutability": "view",
      "type": "function",
      "constant": true
    },
    {
      "inputs": [],
      "name": "orderId",
      "outputs": [
        {
          "internalType": "uint256",
          "name": "",
          "type": "uint256"
        }
      ],
      "stateMutability": "view",
      "type": "function",
      "constant": true
    },
    {
      "inputs": [
        {
          "internalType": "uint256",
          "name": "",
          "type": "uint256"
        }
      ],
      "name": "orderInfo",
      "outputs": [
        {
          "internalType": "uint256",
          "name": "BuyerId",
          "type": "uint256"
        },
        {
          "internalType": "uint256",
          "name": "Price",
          "type": "uint256"
        },
        {
          "internalType": "uint256",
          "name": "Quantity",
          "type": "uint256"
        },
        {
          "internalType": "bool",
          "name": "isBuyside",
          "type": "bool"
        }
      ],
      "stateMutability": "view",
      "type": "function",
      "constant": true
    },
    {
      "inputs": [],
      "name": "owner",
      "outputs": [
        {
          "internalType": "address",
          "name": "",
          "type": "address"
        }
      ],
      "stateMutability": "view",
      "type": "function",
      "constant": true
    },
    {
      "inputs": [
        {
          "internalType": "uint256",
          "name": "",
          "type": "uint256"
        }
      ],
      "name": "sellPriceList",
      "outputs": [
        {
          "internalType": "uint256",
          "name": "",
          "type": "uint256"
        }
      ],
      "stateMutability": "view",
      "type": "function",
      "constant": true
    },
    {
      "inputs": [
        {
          "internalType": "uint256",
          "name": "_buyerId",
          "type": "uint256"
        },
        {
          "internalType": "uint256",
          "name": "_price",
          "type": "uint256"
        },
        {
          "internalType": "uint256",
          "name": "_quantity",
          "type": "uint256"
        },
        {
          "internalType": "bool",
          "name": "_isBuyside",
          "type": "bool"
        },
        {
          "internalType": "string",
          "name": "_orderTime",
          "type": "string"
        }
      ],
      "name": "addOrder",
      "outputs": [],
      "stateMutability": "nonpayable",
      "type": "function"
    },
    {
      "inputs": [
        {
          "internalType": "uint256",
          "name": "_buyerId",
          "type": "uint256"
        },
        {
          "internalType": "uint256",
          "name": "_newPrice",
          "type": "uint256"
        },
        {
          "internalType": "uint256",
          "name": "_newQuantity",
          "type": "uint256"
        },
        {
          "internalType": "bool",
          "name": "_isBuyside",
          "type": "bool"
        },
        {
          "internalType": "string",
          "name": "_orderTime",
          "type": "string"
        }
      ],
      "name": "modifyOrder",
      "outputs": [],
      "stateMutability": "nonpayable",
      "type": "function"
    },
    {
      "inputs": [
        {
          "internalType": "uint256",
          "name": "_buyerId",
          "type": "uint256"
        },
        {
          "internalType": "bool",
          "name": "_isBuyside",
          "type": "bool"
        }
      ],
      "name": "CancelOrder",
      "outputs": [],
      "stateMutability": "nonpayable",
      "type": "function"
    },
    {
      "inputs": [
        {
          "internalType": "uint256",
          "name": "_price",
          "type": "uint256"
        }
      ],
      "name": "getBuyOrderBook",
      "outputs": [
        {
          "components": [
            {
              "internalType": "uint256",
              "name": "BuyerId",
              "type": "uint256"
            },
            {
              "internalType": "uint256",
              "name": "OrderId",
              "type": "uint256"
            },
            {
              "internalType": "uint256",
              "name": "Price",
              "type": "uint256"
            },
            {
              "internalType": "uint256",
              "name": "Quantity",
              "type": "uint256"
            },
            {
              "internalType": "bool",
              "name": "isBuyside",
              "type": "bool"
            },
            {
              "internalType": "string",
              "name": "orderCreateTime",
              "type": "string"
            }
          ],
          "internalType": "struct LOB.Order[]",
          "name": "",
          "type": "tuple[]"
        }
      ],
      "stateMutability": "view",
      "type": "function",
      "constant": true
    },
    {
      "inputs": [
        {
          "internalType": "uint256",
          "name": "_price",
          "type": "uint256"
        }
      ],
      "name": "getSellOrderBook",
      "outputs": [
        {
          "components": [
            {
              "internalType": "uint256",
              "name": "BuyerId",
              "type": "uint256"
            },
            {
              "internalType": "uint256",
              "name": "OrderId",
              "type": "uint256"
            },
            {
              "internalType": "uint256",
              "name": "Price",
              "type": "uint256"
            },
            {
              "internalType": "uint256",
              "name": "Quantity",
              "type": "uint256"
            },
            {
              "internalType": "bool",
              "name": "isBuyside",
              "type": "bool"
            },
            {
              "internalType": "string",
              "name": "orderCreateTime",
              "type": "string"
            }
          ],
          "internalType": "struct LOB.Order[]",
          "name": "",
          "type": "tuple[]"
        }
      ],
      "stateMutability": "view",
      "type": "function",
      "constant": true
    }
  ],
  "bytecode": "0x60806040526040518060400160405280600a81526020017f4c4f425f656e67696e6500000000000000000000000000000000000000000000815250600090805190602001906200005192919062000150565b503480156200005f57600080fd5b5060405162002a8638038062002a868339818101604052810190620000859190620002c3565b81600760006101000a81548173ffffffffffffffffffffffffffffffffffffffff021916908373ffffffffffffffffffffffffffffffffffffffff16021790555080600660006101000a81548173ffffffffffffffffffffffffffffffffffffffff021916908373ffffffffffffffffffffffffffffffffffffffff16021790555033600160006101000a81548173ffffffffffffffffffffffffffffffffffffffff021916908373ffffffffffffffffffffffffffffffffffffffff16021790555050506200036e565b8280546200015e9062000339565b90600052602060002090601f016020900481019282620001825760008555620001ce565b82601f106200019d57805160ff1916838001178555620001ce565b82800160010185558215620001ce579182015b82811115620001cd578251825591602001919060010190620001b0565b5b509050620001dd9190620001e1565b5090565b5b80821115620001fc576000816000905550600101620001e2565b5090565b600080fd5b600073ffffffffffffffffffffffffffffffffffffffff82169050919050565b6000620002328262000205565b9050919050565b6000620002468262000225565b9050919050565b620002588162000239565b81146200026457600080fd5b50565b60008151905062000278816200024d565b92915050565b60006200028b8262000225565b9050919050565b6200029d816200027e565b8114620002a957600080fd5b50565b600081519050620002bd8162000292565b92915050565b60008060408385031215620002dd57620002dc62000200565b5b6000620002ed8582860162000267565b92505060206200030085828601620002ac565b9150509250929050565b7f4e487b7100000000000000000000000000000000000000000000000000000000600052602260045260246000fd5b600060028204905060018216806200035257607f821691505b6020821081036200036857620003676200030a565b5b50919050565b612708806200037e6000396000f3fe608060405234801561001057600080fd5b50600436106100cf5760003560e01c80635b9172841161008c57806376cdb03b1161006657806376cdb03b146102295780638da5cb5b1461024757806395c875d014610265578063f12f283514610281576100cf565b80635b917284146101a85780636641affe146101c65780636ab34a4a146101f6576100cf565b806306aa769b146100d457806306fdde03146100f0578063163de5e51461010e5780633f33770c1461012c57806356b0e7fa1461015c578063579b1c0e1461018c575b600080fd5b6100ee60048036038101906100e99190611f28565b6102b1565b005b6100f8610626565b6040516101059190612047565b60405180910390f35b6101166106b4565b6040516101239190612078565b60405180910390f35b61014660048036038101906101419190612093565b6106ba565b6040516101539190612078565b60405180910390f35b61017660048036038101906101719190612093565b6106de565b6040516101839190612273565b60405180910390f35b6101a660048036038101906101a19190611f28565b61083b565b005b6101b06111f4565b6040516101bd9190612314565b60405180910390f35b6101e060048036038101906101db9190612093565b61121a565b6040516101ed9190612078565b60405180910390f35b610210600480360381019061020b9190612093565b61123e565b604051610220949392919061233e565b60405180910390f35b61023161127b565b60405161023e91906123a4565b60405180910390f35b61024f6112a1565b60405161025c91906123e0565b60405180910390f35b61027f600480360381019061027a91906123fb565b6112c7565b005b61029b60048036038101906102969190612093565b611a93565b6040516102a89190612273565b60405180910390f35b600083116102f4576040517f08c379a00000000000000000000000000000000000000000000000000000000081526004016102eb90612487565b60405180910390fd5b60008411610337576040517f08c379a000000000000000000000000000000000000000000000000000000000815260040161032e906124f3565b60405180910390fd5b60016004546103469190612542565b60048190555060006040518060c001604052808781526020016004548152602001868152602001858152602001841515815260200183815250905082156104d45760026000826040015181526020019081526020016000208190806001815401808255809150506001900390600052602060002090600602016000909190919091506000820151816000015560208201518160010155604082015181600201556060820151816003015560808201518160040160006101000a81548160ff02191690831515021790555060a082015181600501908051906020019061042c929190611bf0565b50505060405180608001604052808781526020018681526020018581526020018415158152506005600088815260200190815260200160002060008201518160000155602082015181600101556040820151816002015560608201518160030160006101000a81548160ff021916908315150217905550905050600885908060018154018082558091505060019003906000526020600020016000909190919091505561061e565b60036000826040015181526020019081526020016000208190806001815401808255809150506001900390600052602060002090600602016000909190919091506000820151816000015560208201518160010155604082015181600201556060820151816003015560808201518160040160006101000a81548160ff02191690831515021790555060a0820151816005019080519060200190610579929190611bf0565b5050506040518060800160405280878152602001868152602001858152602001841515158152506005600088815260200190815260200160002060008201518160000155602082015181600101556040820151816002015560608201518160030160006101000a81548160ff02191690831515021790555090505060098590806001815401808255809150506001900390600052602060002001600090919091909150555b505050505050565b60008054610633906125c7565b80601f016020809104026020016040519081016040528092919081815260200182805461065f906125c7565b80156106ac5780601f10610681576101008083540402835291602001916106ac565b820191906000526020600020905b81548152906001019060200180831161068f57829003601f168201915b505050505081565b60045481565b600981815481106106ca57600080fd5b906000526020600020016000915090505481565b6060600060026000848152602001908152602001600020805480602002602001604051908101604052809291908181526020016000905b8282101561081c57838290600052602060002090600602016040518060c0016040529081600082015481526020016001820154815260200160028201548152602001600382015481526020016004820160009054906101000a900460ff1615151515815260200160058201805461078b906125c7565b80601f01602080910402602001604051908101604052809291908181526020018280546107b7906125c7565b80156108045780601f106107d957610100808354040283529160200191610804565b820191906000526020600020905b8154815290600101906020018083116107e757829003601f168201915b50505050508152505081526020019060010190610715565b50505050905060008151146108345780915050610836565b505b919050565b6000831161087e576040517f08c379a000000000000000000000000000000000000000000000000000000000815260040161087590612487565b60405180910390fd5b600084116108c1576040517f08c379a00000000000000000000000000000000000000000000000000000000081526004016108b8906124f3565b60405180910390fd5b60016004546108d09190612542565b60048190555060006040518060c00160405280878152602001600454815260200186815260200185815260200184151581526020018381525090508215610d8057600060026000878152602001908152602001600020805480602002602001604051908101604052809291908181526020016000905b82821015610a4d57838290600052602060002090600602016040518060c0016040529081600082015481526020016001820154815260200160028201548152602001600382015481526020016004820160009054906101000a900460ff161515151581526020016005820180546109bc906125c7565b80601f01602080910402602001604051908101604052809291908181526020018280546109e8906125c7565b8015610a355780601f10610a0a57610100808354040283529160200191610a35565b820191906000526020600020905b815481529060010190602001808311610a1857829003601f168201915b50505050508152505081526020019060010190610946565b50505050905060005b8151811015610c355787828281518110610a7357610a726125f8565b5b60200260200101516000015103610c225760008190505b60018351610a989190612627565b811015610c1c5760026000898152602001908152602001600020600182610abf9190612542565b81548110610ad057610acf6125f8565b5b9060005260206000209060060201600260008a81526020019081526020016000208281548110610b0357610b026125f8565b5b9060005260206000209060060201600082015481600001556001820154816001015560028201548160020155600382015481600301556004820160009054906101000a900460ff168160040160006101000a81548160ff0219169083151502179055506005820181600501908054610b7a906125c7565b610b85929190611c76565b5090505060026000898152602001908152602001600020805480610bac57610bab61265b565b5b60019003818190600052602060002090600602016000808201600090556001820160009055600282016000905560038201600090556004820160006101000a81549060ff0219169055600582016000610c059190611d03565b505090558080610c149061268a565b915050610a8a565b50610c35565b8080610c2d9061268a565b915050610a56565b50600260008781526020019081526020016000208290806001815401808255809150506001900390600052602060002090600602016000909190919091506000820151816000015560208201518160010155604082015181600201556060820151816003015560808201518160040160006101000a81548160ff02191690831515021790555060a0820151816005019080519060200190610cd7929190611bf0565b50505060405180608001604052808881526020018781526020018681526020018515158152506005600089815260200190815260200160002060008201518160000155602082015181600101556040820151816002015560608201518160030160006101000a81548160ff0219169083151502179055509050506008869080600181540180825580915050600190039060005260206000200160009091909190915055506111ec565b600060036000878152602001908152602001600020805480602002602001604051908101604052809291908181526020016000905b82821015610ebc57838290600052602060002090600602016040518060c0016040529081600082015481526020016001820154815260200160028201548152602001600382015481526020016004820160009054906101000a900460ff16151515158152602001600582018054610e2b906125c7565b80601f0160208091040260200160405190810160405280929190818152602001828054610e57906125c7565b8015610ea45780601f10610e7957610100808354040283529160200191610ea4565b820191906000526020600020905b815481529060010190602001808311610e8757829003601f168201915b50505050508152505081526020019060010190610db5565b50505050905060005b81518110156110a45787828281518110610ee257610ee16125f8565b5b602002602001015160000151036110915760008190505b60018351610f079190612627565b81101561108b5760036000898152602001908152602001600020600182610f2e9190612542565b81548110610f3f57610f3e6125f8565b5b9060005260206000209060060201600360008a81526020019081526020016000208281548110610f7257610f716125f8565b5b9060005260206000209060060201600082015481600001556001820154816001015560028201548160020155600382015481600301556004820160009054906101000a900460ff168160040160006101000a81548160ff0219169083151502179055506005820181600501908054610fe9906125c7565b610ff4929190611c76565b509050506003600089815260200190815260200160002080548061101b5761101a61265b565b5b60019003818190600052602060002090600602016000808201600090556001820160009055600282016000905560038201600090556004820160006101000a81549060ff02191690556005820160006110749190611d03565b5050905580806110839061268a565b915050610ef9565b506110a4565b808061109c9061268a565b915050610ec5565b50600360008781526020019081526020016000208290806001815401808255809150506001900390600052602060002090600602016000909190919091506000820151816000015560208201518160010155604082015181600201556060820151816003015560808201518160040160006101000a81548160ff02191690831515021790555060a0820151816005019080519060200190611146929190611bf0565b5050506040518060800160405280888152602001878152602001868152602001851515158152506005600089815260200190815260200160002060008201518160000155602082015181600101556040820151816002015560608201518160030160006101000a81548160ff0219169083151502179055509050506009869080600181540180825580915050600190039060005260206000200160009091909190915055505b505050505050565b600660009054906101000a900473ffffffffffffffffffffffffffffffffffffffff1681565b6008818154811061122a57600080fd5b906000526020600020016000915090505481565b60056020528060005260406000206000915090508060000154908060010154908060020154908060030160009054906101000a900460ff16905084565b600760009054906101000a900473ffffffffffffffffffffffffffffffffffffffff1681565b600160009054906101000a900473ffffffffffffffffffffffffffffffffffffffff1681565b6000600560008481526020019081526020016000206040518060800160405290816000820154815260200160018201548152602001600282015481526020016003820160009054906101000a900460ff161515151581525050905081156116dd5760006002600083602001518152602001908152602001600020805480602002602001604051908101604052809291908181526020016000905b8282101561146857838290600052602060002090600602016040518060c0016040529081600082015481526020016001820154815260200160028201548152602001600382015481526020016004820160009054906101000a900460ff161515151581526020016005820180546113d7906125c7565b80601f0160208091040260200160405190810160405280929190818152602001828054611403906125c7565b80156114505780601f1061142557610100808354040283529160200191611450565b820191906000526020600020905b81548152906001019060200180831161143357829003601f168201915b50505050508152505081526020019060010190611361565b50505050905060005b815181101561165c578482828151811061148e5761148d6125f8565b5b602002602001015160000151036116495760008190505b600183516114b39190612627565b8110156116435760026000856020015181526020019081526020016000206001826114de9190612542565b815481106114ef576114ee6125f8565b5b906000526020600020906006020160026000866020015181526020019081526020016000208281548110611526576115256125f8565b5b9060005260206000209060060201600082015481600001556001820154816001015560028201548160020155600382015481600301556004820160009054906101000a900460ff168160040160006101000a81548160ff021916908315150217905550600582018160050190805461159d906125c7565b6115a8929190611c76565b5090505060026000856020015181526020019081526020016000208054806115d3576115d261265b565b5b60019003818190600052602060002090600602016000808201600090556001820160009055600282016000905560038201600090556004820160006101000a81549060ff021916905560058201600061162c9190611d03565b50509055808061163b9061268a565b9150506114a5565b5061165c565b80806116549061268a565b915050611471565b5060405180608001604052808581526020016000815260200160008152602001600015158152506005600086815260200190815260200160002060008201518160000155602082015181600101556040820151816002015560608201518160030160006101000a81548160ff02191690831515021790555090505050611a8e565b60006003600083602001518152602001908152602001600020805480602002602001604051908101604052809291908181526020016000905b8282101561181d57838290600052602060002090600602016040518060c0016040529081600082015481526020016001820154815260200160028201548152602001600382015481526020016004820160009054906101000a900460ff1615151515815260200160058201805461178c906125c7565b80601f01602080910402602001604051908101604052809291908181526020018280546117b8906125c7565b80156118055780601f106117da57610100808354040283529160200191611805565b820191906000526020600020905b8154815290600101906020018083116117e857829003601f168201915b50505050508152505081526020019060010190611716565b50505050905060005b8151811015611a115784828281518110611843576118426125f8565b5b602002602001015160000151036119fe5760008190505b600183516118689190612627565b8110156119f85760036000856020015181526020019081526020016000206001826118939190612542565b815481106118a4576118a36125f8565b5b9060005260206000209060060201600360008660200151815260200190815260200160002082815481106118db576118da6125f8565b5b9060005260206000209060060201600082015481600001556001820154816001015560028201548160020155600382015481600301556004820160009054906101000a900460ff168160040160006101000a81548160ff0219169083151502179055506005820181600501908054611952906125c7565b61195d929190611c76565b5090505060036000856020015181526020019081526020016000208054806119885761198761265b565b5b60019003818190600052602060002090600602016000808201600090556001820160009055600282016000905560038201600090556004820160006101000a81549060ff02191690556005820160006119e19190611d03565b5050905580806119f09061268a565b91505061185a565b50611a11565b8080611a099061268a565b915050611826565b5060405180608001604052808581526020016000815260200160008152602001600015158152506005600086815260200190815260200160002060008201518160000155602082015181600101556040820151816002015560608201518160030160006101000a81548160ff021916908315150217905550905050505b505050565b6060600060036000848152602001908152602001600020805480602002602001604051908101604052809291908181526020016000905b82821015611bd157838290600052602060002090600602016040518060c0016040529081600082015481526020016001820154815260200160028201548152602001600382015481526020016004820160009054906101000a900460ff16151515158152602001600582018054611b40906125c7565b80601f0160208091040260200160405190810160405280929190818152602001828054611b6c906125c7565b8015611bb95780601f10611b8e57610100808354040283529160200191611bb9565b820191906000526020600020905b815481529060010190602001808311611b9c57829003601f168201915b50505050508152505081526020019060010190611aca565b5050505090506000815114611be95780915050611beb565b505b919050565b828054611bfc906125c7565b90600052602060002090601f016020900481019282611c1e5760008555611c65565b82601f10611c3757805160ff1916838001178555611c65565b82800160010185558215611c65579182015b82811115611c64578251825591602001919060010190611c49565b5b509050611c729190611d43565b5090565b828054611c82906125c7565b90600052602060002090601f016020900481019282611ca45760008555611cf2565b82601f10611cb55780548555611cf2565b82800160010185558215611cf257600052602060002091601f016020900482015b82811115611cf1578254825591600101919060010190611cd6565b5b509050611cff9190611d43565b5090565b508054611d0f906125c7565b6000825580601f10611d215750611d40565b601f016020900490600052602060002090810190611d3f9190611d43565b5b50565b5b80821115611d5c576000816000905550600101611d44565b5090565b6000604051905090565b600080fd5b600080fd5b6000819050919050565b611d8781611d74565b8114611d9257600080fd5b50565b600081359050611da481611d7e565b92915050565b60008115159050919050565b611dbf81611daa565b8114611dca57600080fd5b50565b600081359050611ddc81611db6565b92915050565b600080fd5b600080fd5b6000601f19601f8301169050919050565b7f4e487b7100000000000000000000000000000000000000000000000000000000600052604160045260246000fd5b611e3582611dec565b810181811067ffffffffffffffff82111715611e5457611e53611dfd565b5b80604052505050565b6000611e67611d60565b9050611e738282611e2c565b919050565b600067ffffffffffffffff821115611e9357611e92611dfd565b5b611e9c82611dec565b9050602081019050919050565b82818337600083830152505050565b6000611ecb611ec684611e78565b611e5d565b905082815260208101848484011115611ee757611ee6611de7565b5b611ef2848285611ea9565b509392505050565b600082601f830112611f0f57611f0e611de2565b5b8135611f1f848260208601611eb8565b91505092915050565b600080600080600060a08688031215611f4457611f43611d6a565b5b6000611f5288828901611d95565b9550506020611f6388828901611d95565b9450506040611f7488828901611d95565b9350506060611f8588828901611dcd565b925050608086013567ffffffffffffffff811115611fa657611fa5611d6f565b5b611fb288828901611efa565b9150509295509295909350565b600081519050919050565b600082825260208201905092915050565b60005b83811015611ff9578082015181840152602081019050611fde565b83811115612008576000848401525b50505050565b600061201982611fbf565b6120238185611fca565b9350612033818560208601611fdb565b61203c81611dec565b840191505092915050565b60006020820190508181036000830152612061818461200e565b905092915050565b61207281611d74565b82525050565b600060208201905061208d6000830184612069565b92915050565b6000602082840312156120a9576120a8611d6a565b5b60006120b784828501611d95565b91505092915050565b600081519050919050565b600082825260208201905092915050565b6000819050602082019050919050565b6120f581611d74565b82525050565b61210481611daa565b82525050565b600082825260208201905092915050565b600061212682611fbf565b612130818561210a565b9350612140818560208601611fdb565b61214981611dec565b840191505092915050565b600060c08301600083015161216c60008601826120ec565b50602083015161217f60208601826120ec565b50604083015161219260408601826120ec565b5060608301516121a560608601826120ec565b5060808301516121b860808601826120fb565b5060a083015184820360a08601526121d0828261211b565b9150508091505092915050565b60006121e98383612154565b905092915050565b6000602082019050919050565b6000612209826120c0565b61221381856120cb565b935083602082028501612225856120dc565b8060005b85811015612261578484038952815161224285826121dd565b945061224d836121f1565b925060208a01995050600181019050612229565b50829750879550505050505092915050565b6000602082019050818103600083015261228d81846121fe565b905092915050565b600073ffffffffffffffffffffffffffffffffffffffff82169050919050565b6000819050919050565b60006122da6122d56122d084612295565b6122b5565b612295565b9050919050565b60006122ec826122bf565b9050919050565b60006122fe826122e1565b9050919050565b61230e816122f3565b82525050565b60006020820190506123296000830184612305565b92915050565b61233881611daa565b82525050565b60006080820190506123536000830187612069565b6123606020830186612069565b61236d6040830185612069565b61237a606083018461232f565b95945050505050565b600061238e826122e1565b9050919050565b61239e81612383565b82525050565b60006020820190506123b96000830184612395565b92915050565b60006123ca82612295565b9050919050565b6123da816123bf565b82525050565b60006020820190506123f560008301846123d1565b92915050565b6000806040838503121561241257612411611d6a565b5b600061242085828601611d95565b925050602061243185828601611dcd565b9150509250929050565b7f5175616e74697479206d7573742062652067726561746572207468616e203000600082015250565b6000612471601f83611fca565b915061247c8261243b565b602082019050919050565b600060208201905081810360008301526124a081612464565b9050919050565b7f5072696365206d7573742062652067726561746572207468616e203000000000600082015250565b60006124dd601c83611fca565b91506124e8826124a7565b602082019050919050565b6000602082019050818103600083015261250c816124d0565b9050919050565b7f4e487b7100000000000000000000000000000000000000000000000000000000600052601160045260246000fd5b600061254d82611d74565b915061255883611d74565b9250827fffffffffffffffffffffffffffffffffffffffffffffffffffffffffffffffff0382111561258d5761258c612513565b5b828201905092915050565b7f4e487b7100000000000000000000000000000000000000000000000000000000600052602260045260246000fd5b600060028204905060018216806125df57607f821691505b6020821081036125f2576125f1612598565b5b50919050565b7f4e487b7100000000000000000000000000000000000000000000000000000000600052603260045260246000fd5b600061263282611d74565b915061263d83611d74565b9250828210156126505761264f612513565b5b828203905092915050565b7f4e487b7100000000000000000000000000000000000000000000000000000000600052603160045260246000fd5b600061269582611d74565b91507fffffffffffffffffffffffffffffffffffffffffffffffffffffffffffffffff82036126c7576126c6612513565b5b60018201905091905056fea26469706673582212203e3b7a1eda15f79772975eba3240be078b2a182fc0c002a8fa55899da6fa81db64736f6c634300080d0033",
  "immutableReferences": {},
  "source": "pragma solidity ^0.8.13;\r\n\r\nimport \"./ElectronToken.sol\";\r\nimport \"./Bank.sol\";\r\n\r\n\r\n\r\ncontract LOB {\r\n    string public name = \"LOB_engine\";\r\n    address public owner;\r\n\r\n    /* ------------------------------ALL STRUCT----------------------------------------------------------- */\r\n    \r\n    struct Order{\r\n        uint BuyerId;\r\n        uint OrderId;\r\n        uint Price;\r\n        uint Quantity;\r\n        bool isBuyside;\r\n        string orderCreateTime;\r\n    }\r\n\r\n\r\n    struct OrderInfo{\r\n        uint BuyerId;\r\n        uint Price;\r\n        uint Quantity;\r\n        bool isBuyside;\r\n    }\r\n\r\n\r\n\r\n\r\n    /* ----------ALL PROPERTIES-------------------------------------------------------*/\r\n    mapping(uint=>Order[])  BuyLimitOrderbook;\r\n    mapping(uint=>Order[])  SellLimitOrderbook;\r\n    uint public orderId;\r\n    mapping(uint=> OrderInfo) public orderInfo;\r\n    ElectronToken public electronToken;\r\n    Bank public bank;\r\n    uint[] public buyPriceList;\r\n    uint[] public sellPriceList;\r\n\r\n\r\n\r\n    /* ------------------------------CONSTRUCTOR----------------------------------------------------------- */\r\n    constructor(Bank _bank,ElectronToken _electronToken) public {\r\n        bank = _bank;\r\n        electronToken = _electronToken;\r\n        owner = msg.sender;\r\n    }\r\n\r\n\r\n\r\n\r\n    /* ------------------------------ALL FUNCTIONS----------------------------------------------------------- */\r\n    function addOrder(uint _buyerId,uint _price, uint _quantity, bool _isBuyside, string memory _orderTime) public {\r\n        require(_quantity > 0, \"Quantity must be greater than 0\");\r\n        require(_price > 0, \"Price must be greater than 0\");\r\n        orderId = orderId + 1;\r\n        Order memory newOrder = Order(_buyerId ,orderId, _price, _quantity, _isBuyside,_orderTime);\r\n\r\n        // is a buy order\r\n        if(_isBuyside){\r\n            BuyLimitOrderbook[newOrder.Price].push(newOrder);\r\n            orderInfo[_buyerId] = OrderInfo(_buyerId,_price,_quantity,_isBuyside);\r\n            buyPriceList.push(_price);\r\n\r\n        // is a sell order\r\n        }else{\r\n            SellLimitOrderbook[newOrder.Price].push(newOrder);\r\n            orderInfo[_buyerId] = OrderInfo(_buyerId,_price,_quantity,!_isBuyside);\r\n            sellPriceList.push(_price);            \r\n        }\r\n    }\r\n\r\n    function modifyOrder(uint _buyerId,uint _newPrice, uint _newQuantity, bool _isBuyside, string memory _orderTime) public {\r\n        require(_newQuantity > 0, \"Quantity must be greater than 0\");\r\n        require(_newPrice > 0, \"Price must be greater than 0\");\r\n        orderId = orderId + 1;\r\n        Order memory newOrder = Order(_buyerId ,orderId, _newPrice, _newQuantity, _isBuyside,_orderTime);\r\n\r\n        // is a buy order\r\n        if(_isBuyside){\r\n            //cancel order\r\n            Order[] memory curLimitArray = BuyLimitOrderbook[_newPrice];\r\n            for(uint i = 0; i < curLimitArray.length; i++){\r\n                if(curLimitArray[i].BuyerId == _buyerId){\r\n                    for(uint j=i; j < curLimitArray.length-1; j++){\r\n                        BuyLimitOrderbook[_newPrice][j] = BuyLimitOrderbook[_newPrice][j+1];\r\n                        BuyLimitOrderbook[_newPrice].pop();\r\n                    }\r\n                    break;\r\n                }\r\n            }\r\n\r\n            // add order\r\n            BuyLimitOrderbook[_newPrice].push(newOrder);\r\n            orderInfo[_buyerId] = OrderInfo(_buyerId,_newPrice,_newQuantity,_isBuyside);\r\n            buyPriceList.push(_newPrice);\r\n         } else {\r\n            //cancel order\r\n            Order[] memory curLimitArray = SellLimitOrderbook[_newPrice];\r\n            for(uint i = 0; i < curLimitArray.length; i++){\r\n                if(curLimitArray[i].BuyerId == _buyerId){\r\n                    for(uint j = i; j < curLimitArray.length - 1; j++){\r\n                        SellLimitOrderbook[_newPrice][j] = SellLimitOrderbook[_newPrice][j+1];\r\n                        SellLimitOrderbook[_newPrice].pop();\r\n                    }\r\n                    break;\r\n                }\r\n            }\r\n\r\n            // add order\r\n            SellLimitOrderbook[_newPrice].push(newOrder);\r\n            orderInfo[_buyerId] = OrderInfo(_buyerId,_newPrice,_newQuantity,!_isBuyside);\r\n            sellPriceList.push(_newPrice);\r\n         }\r\n    }\r\n\r\n    function CancelOrder(uint _buyerId, bool _isBuyside) public {\r\n\r\n        OrderInfo memory curBuyerOrderInfo = orderInfo[_buyerId];\r\n        // is a buy order\r\n        if(_isBuyside){\r\n            //cancel order\r\n            Order[] memory curLimitArray = BuyLimitOrderbook[curBuyerOrderInfo.Price];\r\n            for(uint i = 0; i < curLimitArray.length; i++){\r\n                if(curLimitArray[i].BuyerId == _buyerId){\r\n                    for(uint j=i; j < curLimitArray.length-1; j++){\r\n                        BuyLimitOrderbook[curBuyerOrderInfo.Price][j] = BuyLimitOrderbook[curBuyerOrderInfo.Price][j+1];\r\n                        BuyLimitOrderbook[curBuyerOrderInfo.Price].pop();\r\n                    }\r\n                    break;\r\n                }\r\n            }\r\n            orderInfo[_buyerId] = OrderInfo(_buyerId,0,0,false);\r\n        } else {\r\n            //cancel order\r\n            Order[] memory curLimitArray = SellLimitOrderbook[curBuyerOrderInfo.Price];\r\n            for(uint i = 0; i < curLimitArray.length; i++){\r\n                if(curLimitArray[i].BuyerId == _buyerId){\r\n                    for(uint j=i; j < curLimitArray.length-1; j++){\r\n                        SellLimitOrderbook[curBuyerOrderInfo.Price][j] = SellLimitOrderbook[curBuyerOrderInfo.Price][j+1];\r\n                        SellLimitOrderbook[curBuyerOrderInfo.Price].pop();\r\n                    }\r\n                    break;\r\n                }\r\n            }\r\n            orderInfo[_buyerId] = OrderInfo(_buyerId,0,0,false);\r\n        }\r\n    }\r\n\r\n\r\n\r\n    /*---------------------INSIDE CONTRACT FUNCTION------------------------------------------------- */\r\n\r\n\r\n\r\n    /* ------------------------------ALL VIEW FUNCTION----------------------------------------------------------- */\r\n    function getBuyOrderBook(uint _price) public view returns(Order[] memory){\r\n        Order[] memory curLimitArray = BuyLimitOrderbook[_price];\r\n        if(curLimitArray.length != 0){\r\n            return curLimitArray;\r\n        }\r\n    }\r\n\r\n    function getSellOrderBook(uint _price) public view returns(Order[] memory){\r\n        Order[] memory curLimitArray = SellLimitOrderbook[_price];\r\n        if(curLimitArray.length != 0){\r\n            return curLimitArray;\r\n        }\r\n    }\r\n\r\n\r\n}",
  "sourcePath": "C:/Users/Cam/Desktop/FINAl/electron/contracts/LOB.sol",
  "compiler": {
    "name": "solc",
    "version": "0.8.13+commit.abaa5c0e.Emscripten.clang"
  },
  "schemaVersion": "3.3.4",
  "updatedAt": "2022-06-21T16:26:41.784Z",
  "networkType": "ethereum",
  "devdoc": {
    "kind": "dev",
    "methods": {},
    "version": 1
  },
  "userdoc": {
    "kind": "user",
    "methods": {},
    "version": 1
  }
}